:020000040800F2
:100000000080012069780008B5190008B7190008B8
:10001000B9190008BB190008BD190008000000004C
:10002000000000000000000000000000BF190008F0
:10003000C119000800000000C3190008C519000814
:10004000B9780008B9780008B9780008B9780008CC
:10005000B9780008B9780008B9780008B9780008BC
:10006000B9780008B9780008B9780008B9780008AC
:10007000B9780008B9780008B9780008B97800089C
:10008000B9780008B9780008B9780008B97800088C
:10009000B9780008B9780008B9780008C9190008CB
:1000A000B9780008B9780008B9780008B97800086C
:1000B000B9780008B9780008B9780008B97800085C
:1000C000B9780008B9780008B9780008B97800084C
:1000D000B9780008E9190008B9780008B97800086B
:1000E000091A0008B9780008B9780008B97800083A
:1000F000B9780008B9780008B9780008B97800081C
:10010000B9780008B9780008B9780008B97800080B
:10011000B9780008B9780008391A0008B9780008D9
:10012000B9780008B9780008B9780008B9780008EB
:10013000B9780008B9780008B9780008B9780008DB
:10014000B9780008B9780008B9780008B9780008CB
:10015000B9780008B9780008B9780008B9780008BB
:10016000B9780008B9780008B9780008B9780008AB
:10017000B9780008B978000800000000000000000D
:08018000B9780008B978000805
:1001900010B5054C237833B9044B13B10448AFF3C1
:1001A00000800123237010BDE40600200000000041
:1001B00074A4000808B5034B1BB103490348AFF30F
:1001C000008008BD00000000E806002074A40008BC
:1001D000034613F8012B002AFBD1181A0138704787
:1001E00001F0FF01102A2BDB10F0070F08D010F8E8
:1001F000013B013A8B422DD010F0070F42B3F6D1EC
:10020000F0B441EA012141EA014122F007047FF004
:1002100000070023F0E80256083C85EA010586EA5B
:10022000010685FA47F5A3FA87F586FA47F6A5FA97
:1002300087F68EB9EED1F0BC01F0FF0102F00702A3
:1002400032B110F8013B013A83EA010313B1F8D14E
:100250000020704701387047002D06BF354603382F
:10026000073815F0010F07D1013015F4807F02BF68
:10027000013015F4C03F0130F0BC0138704700BFB9
:1002800081F0004102E000BF83F0004330B54FEA47
:1002900041044FEA430594EA050F08BF90EA020FB4
:1002A0001FBF54EA000C55EA020C7FEA645C7FEA47
:1002B000655C00F0E2804FEA5454D4EB5555B8BF6A
:1002C0006D420CDD2C4480EA020281EA030382EADB
:1002D000000083EA010180EA020281EA0303362D6D
:1002E00088BF30BD11F0004F4FEA01314FF4801C40
:1002F0004CEA113102D0404261EB410113F0004F52
:100300004FEA03334CEA133302D0524263EB430308
:1003100094EA050F00F0A780A4F10104D5F1200EA6
:100320000DDB02FA0EFC22FA05F2801841F1000101
:1003300003FA0EF2801843FA05F359410EE0A5F1D5
:1003400020050EF1200E012A03FA0EFC28BF4CF006
:10035000020C43FA05F3C01851EBE37101F00045BC
:1003600007D54FF0000EDCF1000C7EEB00006EEBC9
:100370000101B1F5801F1BD3B1F5001F0CD3490853
:100380005FEA30004FEA3C0C04F101044FEA4452AA
:1003900012F5800F80F09A80BCF1004F08BF5FEA31
:1003A000500C50F1000041EB045141EA050130BD11
:1003B0005FEA4C0C404141EB010111F4801FA4F1B4
:1003C0000104E9D191F0000F04BF01460020B1FA09
:1003D00081F308BF2033A3F10B03B3F120020CDA41
:1003E0000C3208DD02F1140CC2F10C0201FA0CF01F
:1003F00021FA02F10CE002F11402D8BFC2F1200C84
:1004000001FA02F120FA0CFCDCBF41EA0C01904039
:10041000E41AA2BF01EB0451294330BD6FEA040482
:100420001F3C1CDA0C340EDC04F11404C4F120026D
:1004300020FA04F001FA02F340EA030021FA04F37F
:1004400045EA030130BDC4F10C04C4F1200220FAD6
:1004500002F001FA04F340EA0300294630BD21FA14
:1004600004F0294630BD94F0000F83F4801306BFDA
:1004700081F480110134013D4EE77FEA645C18BFCE
:100480007FEA655C29D094EA050F08BF90EA020F65
:1004900005D054EA000C04BF1946104630BD91EA5D
:1004A000030F1EBF0021002030BD5FEA545C05D160
:1004B0004000494128BF41F0004130BD14F580049F
:1004C0003CBF01F5801130BD01F0004545F0FE4113
:1004D00041F470014FF0000030BD7FEA645C1ABF48
:1004E000194610467FEA655C1CBF0B46024650EA7F
:1004F000013406BF52EA033591EA030F41F40021AB
:1005000030BD00BF90F0000F04BF0021704730B530
:100510004FF4806404F132044FF000054FF0000105
:1005200050E700BF90F0000F04BF0021704730B5C6
:100530004FF4806404F1320410F0004548BF40429B
:100540004FF000013EE700BF42004FEAE2014FEAF0
:1005500031014FEA02701FBF12F07F4393F07F4FCB
:1005600081F06051704792F0000F14BF93F07F4FFD
:10057000704730B54FF4607401F0004521F0004140
:1005800020E700BF50EA010208BF704730B54FF0C6
:1005900000050AE050EA010208BF704730B511F0CB
:1005A000004502D5404261EB41014FF4806404F103
:1005B00032045FEA915C3FF4DCAE4FF003025FEA85
:1005C000DC0C18BF03325FEADC0C18BF033202EB0D
:1005D000DC02C2F1200300FA03FC20FA02F001FA67
:1005E00003FE40EA0E0021FA02F11444C1E600BF06
:1005F00070B54FF0FF0C4CF4E06C1CEA11541DBFB9
:100600001CEA135594EA0C0F95EA0C0F00F0DEF883
:100610002C4481EA030621EA4C5123EA4C5350EA68
:10062000013518BF52EA033541F4801143F48013B9
:1006300038D0A0FB02CE4FF00005E1FB02E506F04A
:100640000042E0FB03E54FF00006E1FB03569CF09F
:10065000000F18BF4EF0010EA4F1FF04B6F5007FA5
:1006600064F5407404D25FEA4E0E6D4146EB060617
:1006700042EAC62141EA55514FEAC52040EA5E50A0
:100680004FEACE2EB4F1FD0C88BFBCF5E06F1ED84A
:10069000BEF1004F08BF5FEA500E50F1000041EB81
:1006A000045170BD06F0004646EA010140EA02002E
:1006B00081EA0301B4EB5C04C2BFD4EB0C0541EA50
:1006C000045170BD41F480114FF0000E013C00F365
:1006D000AB8014F1360FDEBF002001F0004170BD89
:1006E000C4F10004203C35DA0C341BDC04F11404A2
:1006F000C4F1200500FA05F320FA04F001FA05F22E
:1007000040EA020001F0004221F0004110EBD370FA
:1007100021FA04F642EB06015EEA430E08BF20EA26
:10072000D37070BDC4F10C04C4F1200500FA04F3C9
:1007300020FA05F001FA04F240EA020001F000415B
:1007400010EBD37041F100015EEA430E08BF20EACE
:10075000D37070BDC4F1200500FA05F24EEA020E16
:1007600020FA04F301FA05F243EA020321FA04F045
:1007700001F0004121FA04F220EA020000EBD370FC
:100780005EEA430E08BF20EAD37070BD94F0000FFC
:100790000FD101F00046400041EB010111F4801F30
:1007A00008BF013CF7D041EA060195F0000F18BFE1
:1007B000704703F00046520043EB030313F4801F1D
:1007C00008BF013DF7D043EA0603704794EA0C0FD7
:1007D0000CEA135518BF95EA0C0F0CD050EA4106ED
:1007E00018BF52EA4306D1D181EA030101F000416A
:1007F0004FF0000070BD50EA410606BF1046194692
:1008000052EA430619D094EA0C0F02D150EA01369D
:1008100013D195EA0C0F05D152EA03361CBF1046DE
:1008200019460AD181EA030101F0004141F0FE417D
:1008300041F470014FF0000070BD41F0FE4141F401
:10084000780170BD70B54FF0FF0C4CF4E06C1CEA01
:1008500011541DBF1CEA135594EA0C0F95EA0C0FB6
:1008600000F0A7F8A4EB050481EA030E52EA033571
:100870004FEA013100F088804FEA03334FF0805592
:1008800045EA131343EA12634FEA022245EA1115BF
:1008900045EA10654FEA00260EF000419D4208BF70
:1008A000964244F1FD0404F5407402D25B084FEA1D
:1008B0003202B61A65EB03055B084FEA32024FF4C9
:1008C00080104FF4002CB6EB020E75EB030E22BF26
:1008D000B61A754640EA0C005B084FEA3202B6EBE6
:1008E000020E75EB030E22BFB61A754640EA5C0095
:1008F0005B084FEA3202B6EB020E75EB030E22BF25
:10090000B61A754640EA9C005B084FEA3202B6EB25
:10091000020E75EB030E22BFB61A754640EADC00E4
:1009200055EA060E18D04FEA051545EA16754FEA46
:1009300006164FEAC30343EA52734FEAC2025FEA64
:100940001C1CC0D111F4801F0BD141EA00014FF0F3
:1009500000004FF0004CB6E711F4801F04BF0143C4
:100960000020B4F1FD0C88BFBCF5E06F3FF6AFAEE0
:10097000B5EB030C04BFB6EB020C5FEA500C50F170
:10098000000041EB045170BD0EF0004E4EEA1131F3
:1009900014EB5C04C2BFD4EB0C0541EA045170BDFA
:1009A00041F480114FF0000E013C90E645EA060E3E
:1009B0008DE60CEA135594EA0C0F08BF95EA0C0F6C
:1009C0003FF43BAF94EA0C0F0AD150EA01347FF4B4
:1009D00034AF95EA0C0F7FF425AF104619462CE78B
:1009E00095EA0C0F06D152EA03353FF4FDAE1046EE
:1009F000194622E750EA410618BF52EA43067FF43F
:100A0000C5AE50EA41047FF40DAF52EA43057FF4CE
:100A1000EBAE12E74FF0FF3C06E000BF4FF0010CD9
:100A200002E000BF4FF0010C4DF804CD4FEA410C3D
:100A30007FEA6C5C4FEA430C18BF7FEA6C5C1BD00A
:100A400001B050EA410C0CBF52EA430C91EA030F8B
:100A500002BF90EA020F0020704710F1000F91EAE8
:100A6000030F58BF994208BF90422CBFD8176FEAB6
:100A7000E37040F0010070474FEA410C7FEA6C5C84
:100A800002D150EA013C07D14FEA430C7FEA6C5C8B
:100A9000D6D152EA033CD3D05DF8040B704700BFB7
:100AA0008446104662468C461946634600E000BF05
:100AB00001B5FFF7B7FF002848BF10F1000F01BDD7
:100AC0004DF808EDFFF7F4FF0CBF012000205DF8A2
:100AD00008FB00BF4DF808EDFFF7EAFF34BF012027
:100AE00000205DF808FB00BF4DF808EDFFF7E0FFC0
:100AF00094BF012000205DF808FB00BF4DF808ED11
:100B0000FFF7CEFF94BF012000205DF808FB00BF77
:100B10004DF808EDFFF7C4FF34BF012000205DF859
:100B200008FB00BF4FEA410C7FEA6C5C02D150EA3F
:100B3000013C0AD14FEA430C7FEA6C5C02D152EAD5
:100B4000033C02D14FF0000070474FF001007047A6
:100B50004FEA410212F5001215D211D56FF47873E5
:100B6000B3EB625212D94FEAC12343F0004343EA88
:100B7000505311F0004F23FA02F018BF4042704763
:100B80004FF00000704750EA013005D111F00040ED
:100B900008BF6FF0004070474FF00000704700BF83
:100BA00053B94AB9002908BF00281CBF4FF0FF31D4
:100BB0004FF0FF3000F07AB9ADF1080C6DE904CECA
:100BC00000F006F8DDF804E0DDE9022304B0704728
:100BD0002DE9F0478C460D460446089E002B51D166
:100BE0008A4217466DD9B2FA82FEBEF1000F0BD0D1
:100BF000CEF1200C01FA0EF520FA0CFC02FA0EF7E9
:100C00004CEA050C00FA0EF44FEA174A250CBCFB1F
:100C1000FAF81FFA87F90AFB18CC45EA0C4508FBDD
:100C200009F3AB420AD9ED1908F1FF3280F02381B4
:100C3000AB4240F22081A8F102083D44ED1AA4B273
:100C4000B5FBFAF00AFB105544EA054400FB09F92C
:100C5000A14509D9E41900F1FF3380F00A81A145CB
:100C600040F2078102383C44A4EB090440EA084002
:100C70000021002E61D024FA0EF40023346073604A
:100C8000BDE8F0878B4207D9002E54D0002186E8BA
:100C900021000846BDE8F087B3FA83F1002940F04F
:100CA0008E80AB4202D3824200F2FA80841A65EB56
:100CB00003050120AC46002E3FD086E81010BDE8A9
:100CC000F08712B90127B7FBF2F7B7FA87FEBEF13A
:100CD000000F34D1EB1B3A0C1FFA87FC0121B3FB48
:100CE000F2F8250C02FB183345EA03450CFB08F328
:100CF000AB4207D9ED1908F1FF3002D2AB4200F246
:100D0000D1808046ED1AA3B2B5FBF2F002FB10557C
:100D100043EA05440CFB00FCA44507D9E41900F1A3
:100D2000FF3302D2A44500F2B8801846A4EB0C04AD
:100D300040EA08409DE731463046BDE8F087CEF1F5
:100D4000200405FA0EF307FA0EF720FA04F83A0C1D
:100D500025FA04F448EA0308B4FBF2F14FEA184517
:100D600002FB11441FFA87FC45EA044501FB0CF322
:100D7000AB4200FA0EF409D9ED1901F1FF3080F011
:100D80008A80AB4240F2878002393D44EB1A1FFA59
:100D900088F5B3FBF2F002FB103345EA034500FB94
:100DA0000CF3AB4207D9ED1900F1FF386FD2AB421B
:100DB0006DD902383D44EB1A40EA01418FE7C1F199
:100DC000200722FA07F88B4005FA01F448EA0303EA
:100DD00020FA07FE4FEA134CFD404EEA040EB5FB25
:100DE000FCF94FEA1E440CFB19551FFA83F844EA3C
:100DF000054509FB08F4AC4202FA01F200FA01FAD7
:100E000008D9ED1809F1FF3043D2AC4241D9A9F11C
:100E100002091D442D1B1FFA8EFEB5FBFCF00CFBD6
:100E200010554EEA054400FB08F8A04507D9E41820
:100E300000F1FF3529D2A04527D902381C4440EAE9
:100E40000940A4EB0804A0FB02894C45C6464D4668
:100E500015D312D056B1BAEB0E0364EB050404FAB5
:100E600007F7CB401F43CC40376074600021BDE8DA
:100E7000F0871846F8E69046E0E6C245EAD2B8EBBD
:100E8000020E69EB03050138E4E72846D7E7404640
:100E900091E78146BEE7014678E702383C4445E7E2
:100EA000084608E7A8F102083D442BE7704700BF59
:100EB000F0B5B9B014244422002105A806F02DFD98
:100EC00022460021684606F028FD0021882216A847
:100ED00006F023FD04F000FF224AD2F8903023F000
:100EE0001803C2F8903060230125022605940D9363
:100EF00000242823072705A8129307950B950C9427
:100F00000F961095119513971496159605F046F8BF
:100F10000F220421032368468DE80C0002940394F9
:100F2000049405F061FA104B16934FF080633193EF
:100F30001823199316A84FF480131D932494269414
:100F400027942B943694179518951A971B961C96F0
:100F500005F00CFC4FF4007004F0CEFE05F0EEFD41
:100F600039B0F0BD001002408D2001002DE9F04F96
:100F70008DB003F05BFEFFF79BFF1422002107A852
:100F800006F0CBFCAF4BB048DA6CDFF8F49242F0DD
:100F90001002DA64DA6C02F010020292029ADA6C41
:100FA00042F00402DA64DA6C02F004020392039A5B
:100FB000DA6C42F00102DA64DA6C02F001020492A7
:100FC000049ADA6C42F00202DA64DA6C02F002028D
:100FD0000592059ADA6C42F00802DA64DB6C03F0E1
:100FE00008030693002240F21511069B04F0EEF868
:100FF000002248F204114FF0904004F0E7F800227C
:101000004FF23401914804F0E1F8002243F28101EB
:101010008F4804F0DBF800224FF410718D48002453
:1010200004F0D4F8012540F2151307A98648079368
:10103000089509940A9403F053FF6A2307A982488C
:101040000793CDF82090099403F04AFF4FF4005322
:10105000079307A9804B7F4808934FF00B0A099428
:1010600003F03EFF3F2307A97A480793CDF820A05D
:10107000099403F035FF48F2041307A94FF090409C
:10108000022707934FF00808089509940A9403F083
:1010900027FF07A94FF09040CDF81C8009940A94CF
:1010A0000B95089703F01CFF102307A94FF0904001
:1010B00003260793CDF820A009944FF0050B03F009
:1010C0000FFFE02307A94FF09040079309940A9679
:1010D0000897CDF82CB003F003FF07A95B480795EC
:1010E000CDF82090099403F0FBFE07A95748CDF8EE
:1010F00020A00994079703F0F3FE4FF2340307A9E9
:1011000052480793089509940A9403F0E9FE4CF6B7
:10111000044307A94E480793CDF82090099403F0A3
:10112000DFFE43F2810307A9494807930895099414
:101130000A9403F0D5FE4FF4107307A945480793AE
:10114000089509940A9403F0CBFE4FF4C07307A9E5
:1011500040480793CDF82090099403F0C1FE07A9F9
:101160003B4809944FF007090A9607970897CDF86E
:101170002CB003F0B5FE782307A9354807930994EE
:101180000A96CDF82C904FF4407A089703F0A8FE09
:1011900012230A9607A904262C48089309950B9652
:1011A000CDF81CA003F09CFE22462146172003F038
:1011B0007BFD172003F0ACFD21462246282003F0DA
:1011C00073FD282003F0A4FD2448254B036006622C
:1011D0004FF48073234E0571846004614461836120
:1011E000C46144628562C4620463C76003F0DEFDCB
:1011F0001D4A1E4BB460304686E80C00F560346131
:101200007461B461F461346204F076F921463046C9
:1012100004F07CFC2146304604F09EFC144915483D
:10122000FF2380E80A008560C46005614461846131
:1012300004F0C6FD1048114B84604FF4827580E8BD
:1012400028001FE000100240001000480004004881
:10125000000C00480008004800002110540700203E
:1012600020600140100C002000580040EC9C9010C1
:10127000001000A0380E00205C0C0020003C004054
:1012800000001110B74D04614FF400734461836195
:10129000C461046244628462C0F82C900463C0F8A4
:1012A0003480C0F80CA005F051FCAF4BAC604FF09F
:1012B0000C084FF41659284685E80802EC602C61AA
:1012C000AC61EC612C626C62C5F8148006F062F9C6
:1012D000A648A74B84604FF4E13680E84800C4601C
:1012E00004618461C46104624462C0F8148006F041
:1012F00051F9A048A04E44614FF0060E4FF0A043B4
:1013000080E80840C4610462446284620463C46289
:10131000C760876104F045FC984B079440F2CF7C8E
:1013200086E80810304649F64043F3600894099473
:10133000B460B46105F08EFD07A9304607940994A6
:1013400005F0A2FD8E4B8F4880E808028460C460DF
:1013500004618461C46104624462C0F8148006F0D0
:1013600019F900F02BFD00F079FC00F03BFD00F0D6
:101370004DFC00F05FFC00F08DFC00F0D9FC304625
:1013800005F036FC80498148804C06F0DBFF7F4841
:10139000FEF71EFF41F2883382B27C49284606F0F0
:1013A00070F82A68136843F020031360784F794E71
:1013B000DFF8088200F028FD87ED000A00F062FCEB
:1013C0007388338088ED000A00F088FC338882B28D
:1013D000981A13302628728000F2A8806E4A13787B
:1013E000013313702046FEF7F3FE6C4E41F2883352
:1013F00082B22146284606F044F8327868492046F1
:1014000006F07CFF2046FEF7E3FE41F2883382B20D
:101410002146284606F035F896F800E0BEF1010FA7
:10142000C5D1D7ED007A5F4B5B4FB2EE047A67EE21
:10143000877A6720FDEEE77A97F801C0CDED017A53
:10144000D8ED007ABDF90410198077EEA77A564BD3
:10145000FCEEE77A4FF00008CDED017ABDF80420EC
:101460001A80524B5870D970081268215971110AAC
:1014700099714F499870B878DA710A7883F80080CA
:10148000ACEB0009B2FA82F2B9F1020F83F804E082
:101490004FEA5212994656DD002A54D083F808E0EC
:1014A00083F8098081F800E041F2883308223F493F
:1014B0003448DFF80CA105F0E4FF3E49204606F071
:1014C00041FF2046FEF784FE41F2883382B2214676
:1014D000284605F0D6FF4FF0000819F808205146BD
:1014E000204606F00BFF2046FEF772FE08F10108C9
:1014F00082B241F288332146284605F0C2FFB8F196
:101500000A0FEAD12C49204606F01CFF2046FEF7C0
:101510005FFE41F2883382B22146284605F0B1FFD2
:1015200000233B707B70BB7033703FE79A4204D955
:10153000194A53780133537054E73FBF164A9378E2
:10154000013393704EE7A0EB0C0002284FF000002F
:10155000187204DD1AB101225A720A70A4E7587297
:101560000870A1E7C80C0020003801409007002057
:1015700000480040080800204C0D002000100040EA
:10158000004C00408C0D002090A40008060E0020A6
:10159000C40C0020000000200007002004070020E9
:1015A00098A40008C00C0020040E0020400D00206C
:1015B000030700209AA4000895A400088C070020C7
:1015C000ADA40008002000F0C5BA00000A4B1A6E56
:1015D00042F001021A661A6E82B002F00102009215
:1015E000009A9A6D42F080529A659B6D03F0805389
:1015F0000193019B02B070470010024000B589B012
:101600001422002103A806F088F9134B1B6803BBC2
:1016100003F1804303F5043303A91A6E0F4842F027
:1016200080721A661A6E02F080720192019ADA6C68
:1016300042F01002DA64DB6C03F010030293029BA9
:101640004FF420730393022304930623079303F0BC
:1016500047FC09B05DF804FB0807002000100048B3
:1016600010B5044688B01422002103A806F055F9ED
:101670002268134B9A4221D1124C1348E36C43F079
:101680000203E364E36C03F002030193019B4FF454
:1016900040630393122304930123059303230693CA
:1016A00003A90423079303F01BFCA36D43F48003F9
:1016B000A365A36D03F480030293029B08B010BDE1
:1016C0000058004000100240000400480268074B28
:1016D0009A4209D1064A0748936D23F48003936523
:1016E0004FF4406103F0D8BC704700BF0058004081
:1016F000001002400004004810B5044688B01422CF
:10170000002103A806F009F92268144B9A4222D15D
:1017100003F1204303F5003303A91A6D104842F486
:1017200080721A651A6D02F480720192019ADA6C65
:1017300042F01002DA64DB6C03F010030293029BA8
:101740004FF47C43039302230493032306930A2359
:10175000079303F0C5FB08B010BD00BF001000A048
:101760000010004810B5044688B01422002103A8D8
:1017700006F0D3F82268134B9A4220D103F5EA33DE
:1017800003A99A6D104842F400429A659A6D02F4DA
:1017900000420192019ADA6C42F00402DA64DB6CD6
:1017A00003F004030293029B4FF4E05303930223DC
:1017B0000493032306930623079303F091FB08B0D9
:1017C00010BD00BF003C00400008004807B50D4BAD
:1017D00002689A4212D103F5003336209A6D42F026
:1017E00010029A659B6D03F0100301930022012102
:1017F000019B03F059FA362003F08AFA03B05DF832
:1018000004FB00BF0010004010B504468CB0142249
:10181000002107A806F081F82368384A93421FD1B7
:10182000374B9A6D42F400229A659A6D02F40022B9
:101830000192019ADA6C42F00102DA64DB6C03F087
:1018400001030293029B0323079302220A930823B6
:1018500008920B9307A94FF0904003F041FB29E059
:10186000284A934228D1264B27481A6E42F48042D8
:101870001A661A6E02F480420392039ADA6C42F0FE
:101880000202DA64DB6C03F002030493049BC023BE
:101890000793032302240A9307A907230B930894B1
:1018A00003F01EFB25200022214603F0FDF9252030
:1018B00003F02EFA0CB010BD144A9342FAD1104B2B
:1018C00013489A6D42F480229A659A6D02F4802240
:1018D0000592059ADA6C42F00802DA64DB6C03F0D8
:1018E00008030693069B4FF4407307930223089363
:1018F00003230A9307230B9307A9AEE7004C00408C
:101900000010024000380140000400480048004038
:10191000000C004810B5044688B01422002103A82A
:1019200005F0FBFF2368B3F1A04F3CD1204CE36CE2
:1019300043F00103E364E36C03F001030093009BB5
:1019400003A94FF400734FF09040039303F0C8FADB
:101950004FF4E053039302230493002305930323DE
:10196000069303A90A234FF09040079303F0B8FAB7
:10197000E36C43F48053E364E36C03F4805301931A
:10198000019BA36DDB0010D4A36D43F08053A365CE
:10199000A36D03F080530293029B04F0E3F9A36D5F
:1019A00023F08053A36508B010BD04F0DBF9FAE71B
:1019B000001002407047FEE7FEE7FEE7FEE77047D3
:1019C0007047704703F042B908B5202003F008FCC7
:1019D000402003F005FC802003F002FC4FF48070EF
:1019E000BDE8084003F0FCBB08B5044805F08CFADC
:1019F000034B9A8C034B1A7008BD00BFC80C002023
:101A0000003801407C0E002008B54FF4806003F0E0
:101A1000E7FB4FF4006003F0E3FB4FF4005003F0EA
:101A2000DFFB4FF4804003F0DBFB4FF40040BDE8E8
:101A3000084003F0D5BB0000024B034801221A7096
:101A400005F0F2B8040700204C0D00200F49D1F832
:101A5000883043F47003C1F888300D4B1A680020B9
:101A600042F001021A6098601A6822F0A85222F42B
:101A700010221A604FF48052DA601A6822F4802231
:101A80001A6098614FF000638B60704700ED00E0D2
:101A900000100240F0B52A482A4C2B4B2B4D2C4FFE
:101AA000002684E849000122E26026616661E66161
:101AB0002662EB6C43F00203EB64EB6C89B003F03D
:101AC00002030193019B05924FF440630393122399
:101AD00004930323069303A904233846079303F0D2
:101AE000FFF903A9384603F0FBF9AB6D43F480031B
:101AF000AB65AB6D03F480030293029BAB6B43F4C5
:101B00008003AB63AB6B23F48003AB6332460F21DE
:101B1000212003F0C9F8212003F0FAF832460F2102
:101B2000222003F0C1F8222003F0F2F8204603F04F
:101B3000E3FC3146204603F0E9FF09B0F0BD00BFE9
:101B400000580040F80E002081267000001002406E
:101B500000040048034B4FF4804153F8200003F089
:101B60003ABB00BF08000020FFF794BF10B586B055
:101B700006AC4FF47A7304F8012D029301230A4650
:101B8000019301460094054803F04AFE20B1034842
:101B900003F003FDFFF77EFF06B010BDF80E002036
:101BA0007FB506AA002302F8013D4FF47A73029331
:101BB00001238DE80C000A460146074803F0E8FEC1
:101BC00020B1054803F0E9FCFFF764FF9DF817001A
:101BD00007B05DF804FB00BFF80E00201FB54FF4FE
:101BE0007A748DE81C000A4601230146064803F07A
:101BF000CFFE044620B1044803F0CFFCFFF74AFFB4
:101C0000204604B010BD00BFF80E002010B5074CF0
:101C1000A36898476A2807D1054B44F230401C60FE
:101C200023689847002010BD012010BDF00100205E
:101C30000C07002010B5074CA36898476A2807D105
:101C4000054B44F23C401C6023689847002010BDBF
:101C5000012010BD240200201007002010B5074C01
:101C6000BE2063689847BC2806D1054BBE201C6087
:101C700023689847002010BD012010BD940100206A
:101C800014070020024B1B68BE209B68184700BF4A
:101C90001407002037B50F4DAB6898473D2817D182
:101CA0000D4B1D6058238DF80030082300248DF85B
:101CB000033040238DF804308DF801408DF8024048
:101CC00002AA12E903002B689847204603B030BDF2
:101CD0000120FBE7B00100201807002000B589B003
:101CE00001A9044800F085FFBDF80C0009B05DF8BB
:101CF00004FB00BF0C00002070B50C4D86B0022321
:101D00000124402601A928460493019602940394D5
:101D100003F0E6F822463146284603F057FA4FF41E
:101D20007A7002F0A1FF06B070BD00BF0008004845
:101D300010B5F8B00024ADF87A41FFF715FFFFF7B2
:101D4000DBFF2146194C63225FA805F0E6FD5FA981
:101D5000204600F059FB30BB0DF5BD72C021204676
:101D600002F044FEE8B9BDF87A214EF6AA639A4221
:101D700011D1204600F028FD78B901234FF4BC7240
:101D800004F110016846C4F8643105F0BBFD94E825
:101D90000F0002F0AFFE78B010BD054806F032FA31
:101DA000F9E70448FAE70448F8E700BF0C00002010
:101DB000FCA400082CA500085BA5000810B5074C82
:101DC000BA2063689847B12806D1054BBA201C6039
:101DD00023689847002010BD012010BDE4010020B9
:101DE0001C07002010B5064C064B2360FFF7BCFE15
:101DF000236800211B68BE209847002010BD00BF4B
:101E000020070020A0010020024B1B68BE20DB68D9
:101E1000184700BF2007002010B5C4B2202120467B
:101E2000FFF7BEFE00F0F80242F0850220462021B6
:101E3000BDE81040FFF79ABE10B5C4B2202120467D
:101E4000FFF7AEFE00F0F80242F0850220462021A6
:101E5000BDE81040FFF78ABE10B50446FFF784FEC8
:101E6000E0B20F21BDE81040FFF79ABE2DE9F34123
:101E70005FFA80F8022301AAB0214046FFF7AEFEC8
:101E8000022301AAB62140469DF804609DF8055042
:101E9000FFF7A4FE9DF805709DF80440022344EA74
:101EA000072401AABA214046FFF798FE27B29DF801
:101EB00005309DF8044001AA44EA0324A821022326
:101EC0004046FFF78BFE9DF805209DF8043043EA5D
:101ED00002231BB2DB1B07EE903A76086D08AB1BA2
:101EE000B8EEE77A07EE903A24B2F8EEE77AE41B10
:101EF00067EE277A07EE104AB8EEC77A87EE870AB0
:101F000007EE906AF8EEE77A9FED0E7A70EE277A88
:101F1000B2EE040A67EE807AF4EEC77AF1EE10FAB8
:101F20000DDCF5EE407A9FED087AF1EE10FA48BF2D
:101F3000F0EE477A87EE800A02B0BDE8F081F0EE5D
:101F4000477AF7E700007A44000000002DE9F341EA
:101F50005FFA80F801AA0223B2214046FFF73EFE55
:101F600035214046FFF71CFE06029DF8055006F499
:101F7000407380019DF8046000F440701E432843C4
:101F800004230DEB0302C508BC214046FFF726FEE3
:101F90009DF805409DF804709DF8073047EA042736
:101FA0009DF8064001AA44EA0324AA2102234046E0
:101FB000FFF714FE9DF805209DF8043043EA022344
:101FC0003FB21BB2DB1BF60807EE903AAB1BB8EE34
:101FD000E77A07EE903A24B2F8EEE77AE41B67EE70
:101FE000277A07EE104AB8EEC77AC7EE876A07EE7F
:101FF000906AB8EEE70A36EE800A02B0BDE8F081DA
:1020000007B502AB03E9030020219DF800203C2026
:10201000FFF7ACFD9DF8012021213C20FFF7A6FD34
:102020009DF8022022213C20FFF7A0FD9DF803200F
:1020300023213C20FFF79AFD9DF8042024213C2019
:1020400003B05DF804EBFFF791BD08B522213C20F9
:10205000FFF7A6FD00F0FC0242F0030222213C2023
:10206000BDE80840FFF782BD10B5222104463C20A0
:10207000FFF796FD00F0DF020CB142F020022221B2
:102080003C20BDE81040FFF771BD08B5FFF76CFDBF
:102090000F213C20BDE80840FFF782BD30B521216B
:1020A00085B005463C20FFF77BFD0623044602AAC7
:1020B000A8213C20FFF792FD9DF809209DF80830EB
:1020C00003EB0223ADF800309DF80B209DF80A3099
:1020D00003EB0223ADF802309DF80D209DF80C3083
:1020E00004F0600403EB0223202CADF8043021D06F
:1020F00003D84CB19FED127A08E0402C1DD0602C23
:10210000F8D19FED107A01E09FED0F7A00223DF9A2
:10211000123007EE903AF8EEE77A67EE877AFDEE36
:10212000E77A17EE903A25F812300132032AEED101
:1021300005B030BD9FED057AE8E79FED057AE5E74C
:1021400000000000E17A143F295C0F3EE17A943EE2
:10215000F628DC3E73B50024C6B201AD04F12801B7
:10216000C9B23046FFF71CFD28550134032CF5D1C8
:102170009DF806309DF805201B0443EA02239DF8D4
:10218000042013431A0248BF43F07F4364225343A1
:102190004FF4805293FBF2F307EE903AB8EEE70A61
:1021A000DFED027A80EE270A02B070BD0000C8425F
:1021B00010B5C4B21A212046FFF7F2FC00F0FE026F
:1021C00042F0010220461A21FFF7D0FC10212046E0
:1021D000FFF7E6FC00F08D0242F0320220461021AB
:1021E000BDE81040FFF7C2BCFFF7E2BF10B50446E0
:1021F000FFF7BAFCE0B20F21BDE81040FFF7D0BCFA
:1022000010B510210446D420FFF7CAFC00F00302E9
:102210002243D2B21021D420FFF7A8FC1221D420EF
:10222000FFF7BEFC00F0BB0242EA14221221D420C8
:10223000BDE81040FFF79ABC08B51021D420FFF785
:10224000AFFC102100F00F02BDE80840D420FFF7DA
:102250008DBC10B515210446D420FFF7A1FC00F079
:10226000EF020CB142F010021521D420BDE810405D
:10227000FFF77CBC10B511210446D420FFF790FC79
:1022800000F003022243D2B21121D420FFF76EFCEA
:102290001221D420FFF784FC00F0BB0242EA142292
:1022A0001221D420BDE81040FFF760BC08B5112111
:1022B000D420FFF775FC112100F00F02BDE80840A3
:1022C000D420FFF753BC10B516210446D420FFF7E5
:1022D00067FC00F07F020CB142F080021621D4208E
:1022E000BDE81040FFF742BC08B5FFF73DFC0F21E9
:1022F000D420BDE80840FFF753BCFFF7F5BF00004E
:1023000030B5102185B00546D420FFF749FC0623DF
:10231000044602AA2821D420FFF760FC9DF809207A
:102320009DF80830174803EB0223ADF800309DF804
:102330000B209DF80A3003EB0223ADF802309DF824
:102340000D209DF80C3004F00C0400EB840003EB2E
:10235000022390ED007AADF8043000223DF91230EE
:1023600007EE903AF8EEE77A67EE877AFDEEE77AC5
:1023700017EE903A25F812300132032AEED105B05B
:1023800030BD00BF8CA5000830B5112185B00446D2
:10239000D420FFF705FC0623054602AA2221D420FB
:1023A000FFF71CFC9DF809209DF80830154803EB49
:1023B0000223ADF800309DF80B209DF80A3003EBA6
:1023C0000223ADF802309DF80D209DF80C3005F089
:1023D0000C0503EB022300EB8500ADF8043090ED13
:1023E000007A002320463DF9132007EE902AF8EEEC
:1023F000E77A013367EE877A032BE0EC017AF2D1BA
:1024000005B030BDC0A5000802F046BA152907D8AE
:102410000122054B8A40134013B10174002070471C
:102420006FF00700704700BF0B00300010B50A4680
:102430000C46092102F091FA18B9237803F0010340
:10244000237010BD01F07ABE01F054BD01F05DBEF5
:10245000F7B5174602AA00230C4602F8013D0121F8
:10246000064602F07AFA0546D8B9012F9DF80730E2
:1024700026D1042C3AD8DFE804F003171A1D2000F7
:1024800043F01004A3420CD022460121304602F052
:10249000F3FA054628B986F8304171693046FFF7EE
:1024A000D1FF284603B0F0BD43F02804EAE743F02B
:1024B0000404E7E743F04004E4E743F08004E1E785
:1024C000042C13D8DFE804F00306090C0F0003F016
:1024D000EF04D7E703F0D704D4E703F0FB04D1E718
:1024E00003F0BF04CEE703F07F04CBE76FF00305F2
:1024F000D7E713B502AA00230C4602F8013D0121DB
:1025000002F02BFA78B99DF80730C3F3001222705D
:10251000C3F3C002A270C3F380026270C3F38012DF
:10252000DB09E270237102B010BD13B5144601AA95
:1025300001F0D4FB78B9019B4FF47A72B3FBF2F14E
:1025400002FB1133C3EB034303F5FA73B3FBF2F35E
:1025500003EB0143236002B010BD37B50D460DF10A
:102560000202F821044602F041FA70B901AA0421DE
:10257000204602F05BFA40B9BDF802201AB1019B77
:10258000B3FBF2F32B602B68A36103B030BD037F74
:102590000B700020704737B50D460DF10602202163
:1025A000044602F023FA28B9BDF8063023B9236A9D
:1025B0002B60207703B030BDDB002B60236201234A
:1025C0002377F7E7052970B504460D46164632D83D
:1025D000A2B300EB810301215A6B0023681E04287B
:1025E00004D8DFE800F00B14171A210084F8281033
:1025F0002C44E6B984F82860002070BDC2F34F2255
:102600004421204602F048FA0028F1D070BD84F839
:102610002A10EDE784F82B10EAE75B00FE22602128
:10262000204602F04BFAEFE71B01EF22F7E7012308
:1026300084F82830E0E76FF0030070BD11460123F5
:10264000CCE705298CBF6FF0030040184FF0000362
:1026500097BF90F82810137011701846704770B526
:102660004318044693F828000E46154618B904EBA3
:102670008104626370BD05291BD8DFE801F00309FE
:1026800012141616626304EB86040020656370BDA5
:10269000C2F34F224421204602F0FEF90028F2D076
:1026A00070BDE263EFE72264EDE7C2F34F226421DD
:1026B000F1E76FF00300F3E737B504461546052947
:1026C0002CD8DFE801F0030717191B1B436B2B60A5
:1026D000002021E00DF10602442102F087F9D8B96B
:1026E000BDF8062053029AB12B60A363012384F83E
:1026F000293011E0C36BEAE7036CE8E70DF106024D
:10270000642102F073F938B9BDF806305B02DEE7E8
:10271000A36B2B6084F8290003B030BD6FF0030079
:10272000FAE737B50C460DF107020121054602F024
:1027300014F958B99DF8073085F830311B0646BFAB
:10274000012323702070237885F84C3003B030BD0E
:102750002DE9F843037C0C4601F8083B0546FFF7DA
:10276000FCFE40BB207304F110012846FFF713FF65
:1027700008BB04F11401284600F003FCD8B904F1A9
:10278000240705F1280904F1180806463A46B1B2B3
:102790002846FFF791FF70B9013619F8013B08F898
:1027A000013B062E07F10407F0D104F13C01284655
:1027B000FFF7B7FF08B1BDE8F883211D2846BDE843
:1027C000F84301F01CBD0000F0B50022054691B0B1
:1027D000882102F051F94FF47A72A5F84E214FF496
:1027E000C872A5F85021414AC5F854210023404A37
:1027F00085F8F030C5F8D4202B6269462846FFF7EB
:10280000A7FF044680B98DF800008DF801006E46E0
:102810000FCE05F110070FC70FCE0FC70FCE0FC792
:1028200096E80F0087E80F006423A5F834314FF4D1
:102830006173A5F836314FF4FA73A5F838314FF4C7
:102840002063A5F83A31012385F84C310026002C8D
:1028500049D1B1B201222846FFF7B4FE0136062E57
:102860000446F4D1F8BB85F82A0085F82B0002460F
:1028700004212846FFF7A6FE0446A0BB0246052118
:102880002846FFF79FFE044668BB01464FF49012AE
:102890002846FFF7E4FE044628BB4FF4804201219E
:1028A0002846FFF7DCFE0446E8B94FF40C1202217B
:1028B0002846FFF7D4FE0446A8B90246032128465D
:1028C000FFF7CDFE044670B9FF2285F830210121C3
:1028D000284602F0D1F8012385F83231044610B9B8
:1028E000002385F81531204611B0F0BD856B01003D
:1028F000A4700900012300F066BD2DE9F0478EB0F9
:102900000C460C2304AA1421064602F059F8864608
:10291000002875D19DF816309DF817209DF81810E5
:102920009DF81A509DF81B70A07502EB03229DF8CC
:102930001930206003EB01239BB25B0223619DF8F9
:1029400012109DF81330606007EB052703EB01239D
:1029500092B2B6F84E519DF8101052029BB2E2604E
:10296000A382B5F57A7FBFB296F831E10CD007FBB0
:1029700005F0377F4FF47A7500F5FA7090FBF5F0AB
:10298000356A002F40D187B2BEF1000F46D0B8089B
:102990002081B801E0750DF10F00019000943046E0
:1029A00001F05CFE864658BB9DF80FC084F818C045
:1029B00006F150050FCD07AF0FC795E80700B4F833
:1029C00008A0E37DB4F80A90B4F81480ADF824A010
:1029D00087E80700E16822696068ADF826900A91EF
:1029E0000B92ADF830808DF833308DF834C007ACE1
:1029F00008900FCC50360FC697E8070085E807000F
:102A000070460EB0BDE8F087ADB25D432D12AA420C
:102A100007D1BEF1000F0AD148F6E0272781002038
:102A2000B8E780B25043551BB0FBF5F0ABE742F27C
:102A3000B827ACE7F7B517460E210DF106021D4683
:102A400006460B4C01F0D2FFBDF8063004EA4343C2
:102A50003B6050B90DF106020C21304601F0C6FF73
:102A6000BDF8063004EA43442C6003B0F0BD00BF5B
:102A70000000FE1F73B590F8DA30013B022B0646CA
:102A80000C4633D801AB6A460121FFF7D3FF009B08
:102A9000B3F57F0F054603D8019BB3F57F0F06D929
:102AA0002DB93CB11249304601F00EFC05462846CE
:102AB00002B070BD0422FF21304601F0DDFF2A463E
:102AC00004467021304601F0D7FF2A460443FF2117
:102AD000304601F0D1FF64B204432A4680213046DB
:102AE00001F0CAFF64B2204345B2E0E70025DEE70B
:102AF0004B03002037B5017C0129044627D004D3BD
:102B0000032931D06FF0070013E00122002101F00A
:102B1000B3FF01238DF8073058B905469DF80730FB
:102B2000DB0705F101050DD560B9C82D03D16FF0A4
:102B3000060003B030BD01460DF10702204601F04A
:102B40000CFFEBE7C82D08BF6FF00600F1E7FFF7B9
:102B500091FF02220021204601F08EFF0028E8D1DB
:102B6000042384F83231E4E70121FFF783FF0422D4
:102B7000F0E738B5057C044625B1204600F076FD27
:102B800028B138BDFFF7B6FF0028F6D038BD002DBC
:102B9000FCD1032384F83231F8E773B506460025EB
:102BA00001220B21304601F067FF002204460B2171
:102BB000304601F061FF0DF1070204431321304656
:102BC00001F0CBFE9DF8073064B2204301355B076E
:102BD00040B2EDB205D0032D08D00028E0D002B0FD
:102BE00070BD032D08BF6FF00B00F8E76FF00B000E
:102BF000F5E738B50023037404460D46FFF7B9FF27
:102C000050B929462046FFF778FE28B901462046EC
:102C1000BDE83840FFF7C1BF38BDF8B505461C46D2
:102C20009DF818700E46002940F09A80142A08D1A9
:102C3000002F0CBF102201228421BDE8F84001F0D2
:102C40001BBF152A67D10122FF2101F015FF324673
:102C500031460446284601F00FFF32460443FF2167
:102C6000284601F009FF64B204430122802128466E
:102C700001F002FF64B2044302228521284601F0DC
:102C8000FBFE64B204430422FF21284601F0F4FE57
:102C900064B232460443CD21284601F0EDFE64B211
:102CA00004431122CC21284601F0E6FE64B204431D
:102CB0000722FF21284601F0DFFE64B232460443BA
:102CC000BE21284601F0D8FE64B204430622FF214B
:102CD000284601F0D1FE64B204430922CC212846E3
:102CE00001F0CAFE64B232460443FF21284601F0D7
:102CF000C3FE64B204430122FF21284601F0BCFE5A
:102D000064B2044332463146284601F0B5FE64B24F
:102D1000204340B2F8BD042C25D8DFE804F0292771
:102D2000030A0C0002220A21284601F0A5FE20B168
:102D3000F8BD0322F7E70422F5E7002F0CBF334666
:102D40001023EF228421284601F0B8FE0028EFD19D
:102D500085F8DA4001462846BDE8F840FFF71DBF78
:102D60006FF00900F8BD6FF00A00F8BD0122DAE744
:102D70000022D8E770B596B005464022002106A88B
:102D800004F0CBFD002301212846ADF80E308DF86C
:102D90000B308DF80C30049300F0B8FC95F814213A
:102DA000012A06D895F8131140F0AE80202940F290
:102DB000AD8003AA04A9284600F020FB04460028A1
:102DC00040F09F8095F84C31002B40F0A380D5F85F
:102DD0004811284601F078FA0446002840F0918016
:102DE00000942246214604232846FFF716FF044696
:102DF000002840F086800122FF21284601F03CFE99
:102E00000DF10E0206468421284601F0EFFD224610
:102E10000643FF21284601F02FFE76B2304344B22C
:102E2000002C6ED1BDF80E301B01C5F8D43006A9B8
:102E30002846FFF78DFC0446002862D10DF10B01F6
:102E40002846FFF7F3FA044600285AD19DF80B30C4
:102E500085F8313106AE0FCE05F110040FC40FCE48
:102E60000FC40FCE0FC496E80F0084E80F000DF1D9
:102E70000B020121284601F070FD0446002840D1D4
:102E80009DF80B3085F83031024601462846FFF7A1
:102E9000DFFA0446A8BB024602212846FFF7D8FA0B
:102EA000044670BB0323014685F832310DF10D0253
:102EB000284601F02AF9044618BB9DF80D3085F824
:102EC000E8300DF10D020121284601F01EF90446FB
:102ED000B8B99DF80D3085F8E03005AA03212846E1
:102EE000FFF723FB044660B9059BC5F8E43005AA4B
:102EF00004212846FFF719FB044610B9059BC5F8C5
:102F0000DC30204616B070BD0C2950E7284600F092
:102F100013F953E700495CE75802002013B50C464B
:102F20000DF10702132101F018FD9DF8073013F091
:102F3000180F03F0070218BF6FF00500226002B0FF
:102F400010BD13B590F8DA30042B0C460BD101A953
:102F5000FFF7E4FF019B042B01D1012300E00023D4
:102F6000237002B010BD01AA142101F0F6FC002864
:102F7000F7D19DF80430DB07EFD42070F1E700F0C3
:102F80003DBA13B50C460DF10602282101F02EFDC5
:102F900070B9BDF80630C3F30B03B3F5006F4FF003
:102FA000FA0226BFA3F5805313FB02F353432360B9
:102FB00002B010BDF0B54FEAD20E4FF0FF341C60E6
:102FC00002F007024FEACE0C764600278E4200D26E
:102FD00007B1F0BD855D764503BF1541EDB21446DE
:102FE0003C4615F0010F06D064441C6001270136F1
:102FF0000CF1080CEAE70134082C4FEA5505F0D132
:10300000F5E70000034B800953F82000003018BF9B
:103010000120704704050020D3088B4202F007020C
:103020003FBF01219140C25C0A433ABFC254002015
:103030006FF0310070470A460623B02101F0A2BCB0
:103040000A460623B02101F0BBBC2DE9F04F87B042
:103050000DF11809129C109F49F80C4D82468B46C1
:1030600001921D464FF00008139B984514D1002093
:10307000149B1C6068B929465046FFF7DCFF0446E4
:1030800038B904AE31465046FFF7DAFF23469F4277
:103090001DD107B0BDE8F08F4B4622463946019856
:1030A000FFF788FF039E731C0ED0119BF018FFF7EB
:1030B000A9FF584508D1324639462846FFF7ACFFEC
:1030C000741C08F10108CFE76FF03100D0E7E95C2C
:1030D000F25C914201D10133D9E76FF03100D8E7BA
:1030E00070B5C02288B00E460121044690F83051D8
:1030F00001F0C2FCF0B901A92046FFF77AFDC8B97A
:103100000122FF21204601F0B7FC98B93246B621D2
:10311000204601F06BFC68B90246FF21204601F011
:10312000ABFC38B92A460121204601F0A5FC08B9BC
:1031300084F8305108B070BD70B50E4688B01546A1
:10314000FF210122044601F097FC0246A8B94F2155
:10315000204601F091FC80B92C224E21204601F03E
:103160008BFC024648B9FF21204601F085FC20B9BE
:10317000B422B621204601F07FFC002384F82431DC
:1031800084F8253184F8263184F8273184F82831F1
:1031900084F829311DB31A4602F1B400FFF732FF5B
:1031A00008B92C2A19D107AB04930292B423062242
:1031B0008DE80C00039604F5927304F59572294688
:1031C0002046FFF742FF30B9012384F8153184F817
:1031D000136184F8145108B070BD0132DCE72A464F
:1031E000E1E710B541F001020021044601F044FC82
:1031F00078B9204600F03AFA58B901462046FFF760
:10320000CCFC30B9024601462046BDE8104001F032
:1032100033BC10BD2DE9F74F4FF0000B89469046A7
:10322000FF21012205461F469DF838A09DF83C600D
:103230008DF807B001F020FC5A460446594628464E
:1032400001F01AFC5A460443FF21284601F014FC01
:1032500064B2044364B2B9F1000F30D0BAF1000F88
:1032600006D00C9ACB21284601F077FB044364B2C8
:103270003EB10DF10702EE21284601F06EFB04433A
:1032800064B20122FF21284601F0F6FB012204432B
:103290000021284601F0F0FB64B204430022FF2124
:1032A000284601F0E9FB64B29DF807300D9A2043EF
:1032B00023F0100340B2137003B0BDE8F08FBAF1F1
:1032C000000F06D04246CB21284601F0D5FB04432F
:1032D00064B2002ED5D03B468022EE21284601F074
:1032E000EDFBCCE72DE9F04186B0174600220446FD
:1032F00088468DF817201E4643B390F830510122BE
:103300001146204601F0B8FB10BB40212046FFF7D4
:1033100068FFE8B9012F1BD10DF11703039001934A
:10332000024603460297CDF8008039462046FFF753
:1033300071FF40B93EB12A460121204601F09CFBB5
:1033400008B984F8305106B0BDE8F0811D46D6E7D3
:10335000002388F80030ECE72DE9F041044686B000
:10336000884617461E4643B390F830510222012189
:10337000204601F081FB10BB01462046FFF731FFDC
:10338000E8B9012F1BD10DF11703029000930246FB
:1033900003460397CDF8048039462046FFF73AFFED
:1033A00040B93EB12A460121204601F065FB08B92B
:1033B00084F8305106B0BDE8F0811D46D6E7002301
:1033C00088F80030ECE7F8B51E4617460023324671
:1033D000044690F83051FFF785FF70B90346324636
:1033E00039462046FFF7B8FF38B92A460121204662
:1033F00001F042FB08B984F83051F8BD2DE9F04FD7
:1034000093B000230A910B9280F8243180F8253183
:1034100080F8263180F8273180F8283180F829316A
:103420000122FF2105460E930F938DF834308DF85D
:103430003530B0F83A8101F01FFB0446002840F017
:103440000E8102464F21284601F016FB0446002853
:1034500040F005812C224E21284601F00DFB044648
:10346000002840F0FC800246FF21284601F004FBC2
:103470000446002840F0F380B422B621284601F02B
:10348000FBFA0446002840F0EA80024680212846E4
:1034900001F0F2FA0446002840F0E18003460DF105
:1034A00035020DA92846FFF78EFF0446002840F09C
:1034B000D68012AF05F5957347F8100D07930323D7
:1034C00003930621B42305F592798DE80A00029052
:1034D000014604974B46079A2846FFF7B6FD044677
:1034E000002840F0BC800DF1360128460E9EFFF703
:1034F000F7FD0446002840F0B280BDF83630434561
:1035000055D985F8240185F8250185F8260185F827
:10351000270185F8280185F8290106F1B400FFF795
:1035200071FD80B10622B423049703278DE80C00B7
:10353000039702964B46079A01212846FFF785FD1F
:1035400028B104468BE02B2EECD80136E5E70DF1CF
:10355000360128460E9EFFF7C3FD0028F1D1BDF8C5
:10356000363043457FD94FF0010A4FF0010B22E07E
:10357000D5F82401B5F828311090ADF84430089FF3
:1035800009922AE0089F0A9B1F600B9B83F800A00A
:10359000012385F815310A9B1B6885F813310B9BB5
:1035A0001B7885F814315AE06FF0310457E04FF082
:1035B000000A5746D346BDF836209045E3D9A2EB22
:1035C0000802002AD9F80000B9F804301090B8BFFA
:1035D0005242ADF84430099203270FAB3246062120
:1035E0000798FFF7E7FC0F9E731CDDD07B1C06F1EC
:1035F000B4000893FFF706FD58458246D4D1324601
:1036000006214846FFF708FD00289AD1494628467A
:103610000136FFF710FD002893D10DF13601284641
:10362000FFF75EFD00288CD1BDF83610A1EB080233
:10363000002AB8BF524288459AD2099B9A42A1D922
:1036400010A92846FFF7F7FCBDF84410A5F828118B
:1036500002461098C5F82401002A94D0144620464A
:1036600013B0BDE8F08F824607467EE773B502AD22
:10367000002305F8013D0646C82429463046FFF7D9
:1036800060FC58B99DF80730012B07D0013C03D0EE
:10369000304601F029FAF0E76FF0060002B070BD85
:1036A00010B501464FF080428A4202D8002012B97C
:1036B00010BD9208F8E78418A1424FEA500326BFD4
:1036C000D018091B18469208F1E773B50022832130
:1036D000064601F0D1F9044678B9C8250DF1070274
:1036E0008321304601F039F99DF80730044623B9AB
:1036F00018B9013DF2D16FF0060401228321304652
:1037000001F0BAF9204340B202B070BD2DE9F04F8C
:1037100090F8F06091B04FF00009072E04468846FB
:10372000CDF81C90CDF8209000F0988201228021E5
:1037300001F0A2F901220746FF21204601F09CF981
:103740004A4607434946204601F096F97FB20743AF
:103750000622FF21204601F08FF97FB207430DF1C9
:1037600015028321204601F0F8F89DF815207FB25C
:10377000074342F004028321204601F07DF97FB225
:1037800007430722FF21204601F076F97FB201228C
:1037900081210743204601F06FF97FB2074320469D
:1037A00001F0A2F97FB2074301228021204601F0F7
:1037B00063F97FB2384318F0010A45B200F0238262
:1037C000F30700F123826B229421204601F054F983
:1037D00007462046FFF779FF3843054306AA9021A4
:1037E000204601F023F96DB2054306982422942166
:1037F000C0F3062BC0F3C039204601F03DF96DB28D
:1038000005432046FFF761FF6DB2054306AA9021EC
:10381000204601F00BF9069B8DF827301A0E8DF823
:1038200024201A0C8DF825206DB21A0A9421054324
:103830008DF826202046252201F01EF96DB20543A1
:103840002046FFF742FF6DB2054306AA90212046AD
:1038500001F0ECF8069B6DB21A0E05431B0C6DB21D
:103860008DF828208DF8293018F00203029300F01B
:10387000DB8016F0020740F0D78002229421204618
:1038800001F0FAF801902046FFF71FFF019B184353
:1038900005430DF116029021204601F05EF86DB24D
:1038A0007B2294210543204601F0E6F86DB20543E2
:1038B0002046FFF70AFF6DB205430DF11702902174
:1038C000204601F04AF86DB2772294210543204644
:1038D00001F0D2F86DB205432046FFF7F6FE6DB257
:1038E000054306AA9021204601F0A0F8069B5A0E37
:1038F0008DF82C20C3F386428DF82D20C3F3C62209
:103900008DF82E206DB2C3F30612DB0003F07803AE
:10391000942105438DF82F20204678228DF815300C
:1039200001F0AAF86DB205432046FFF7CEFE6DB256
:10393000054306AA9021204601F078F8069B9DF8E1
:10394000152002EB53728DF83020C3F386528DF8A8
:103950003120C3F3C6328DF83220C3F306228DF82E
:1039600033206DB2C3F346029B0103F04003942160
:1039700005438DF83420204679228DF8153001F06A
:103980007BF86DB205432046FFF79FFE6DB20543FD
:1039900006AA9021204601F049F8069B9DF81520C3
:1039A00002EB93628DF83520C3F3C6428DF83620C2
:1039B000C3F306328DF837206DB2C3F346129B0075
:1039C00003F07C03942105438DF8382020467A22A9
:1039D0008DF8153001F050F86DB205432046FFF721
:1039E00074FE6DB2054306AA9021204601F01EF830
:1039F000069B9DF815208DF83E7002EB93728DF8B2
:103A00003920C3F3C6526DB28DF83A20C3F3064293
:103A100005438DF83B20C3F34622C3F386036DB202
:103A20008DF83C208DF83D3018F00403019300F030
:103A3000EF80770700F1EC807B229421204601F093
:103A40001BF807462046FFF740FE3843054307AA08
:103A50009021204600F0EAFF6DB27C2294210543BC
:103A6000204601F009F86DB205432046FFF72DFE10
:103A70006DB2054308AA9021204600F0D7FF6DB231
:103A8000732294210543204600F0F6FF6DB20543F2
:103A90002046FFF71AFE6DB2054306AA9021204684
:103AA00000F0C4FF6DB27422942105432046069FA6
:103AB00000F0E2FF6DB205432046FFF706FE6DB24F
:103AC000054306AA9021204600F0B0FF3F029DF872
:103AD0001B306DB2752294210543BFB220461F43AF
:103AE00000F0CAFF6DB205432046FFF7EEFD6DB250
:103AF000054306AA9021204600F098FF069B6DB270
:103B00001B029BB27622942105432046039300F0CA
:103B1000B3FF6DB205432046FFF7D7FD6DB20543F5
:103B200006AA9021204600F081FF6DB29DF81B206F
:103B3000039B05436DB2134300228121204603936A
:103B400000F09AFF06220543FF21204600F094FF73
:103B50006DB205430DF115028321204600F0FDFEF4
:103B60009DF815206DB2054302F0FB02832120462B
:103B700000F082FF6DB205430122FF21204600F0D4
:103B80007BFF6DB2054301220021204600F074FF47
:103B90006DB205430022FF21204600F06DFF6DB29B
:103BA000054300228021204600F066FF6DB20543E8
:103BB0006DB2039B1DBBBAF1000F01D0F0072AD5EF
:103BC000029A002A38D1019AAAB1720713D4079A2F
:103BD000C4F818217F02089AC4F81C21C4F8207187
:103BE0003BB1A3F5C8524FF47A7353431B095B42B0
:103BF0009BB21BB2E36046EA080684F8F0602846F0
:103C000011B0BDE8F08FD146D3462DE6CB462BE66A
:103C100000273B4690E784F813B184F8149104F52B
:103C200095712A460DF1240E12F80E0001F8010BD1
:103C30000132062AF8D1C3E7B107C4D49DF8162093
:103C400084F8F1209DF8172084F8F2200BA904F1E4
:103C5000F300029304F076FB029BB4E74D46CEE7F7
:103C600050B10138002330F0FF019AB203F1010393
:103C700003D100EB022080B270474008F3E7C3B2E3
:103C8000000A03FA00F001307047000008484FF4C2
:103C90007A73424302F5FA724FF4FA60B2FBF0F025
:103CA000B2FBF3F203FB0100B0FBF2F0704700BF80
:103CB000002F3A0010B5084B5A4302F5FA724FF440
:103CC0007A704FF4FA64B2FBF0F3B2FBF4F201FB4A
:103CD0000322B2FBF0F010BD002F3A002DE9FF41A6
:103CE00002294FF00004064690468DF80340ADF8D7
:103CF00004401DD80DF102022146FEF7A7FB054640
:103D000030B90DF103024621304600F026FE05468B
:103D10009DF80300FFF7B3FF9DF8022081B2304603
:103D2000FFF7C8FFC8F80000284604B0BDE8F081DE
:103D3000032918D10DF102022146FEF787FB054643
:103D400000284AD101460DF102023046FEF77EFB03
:103D5000054628B901AA5121304600F047FE054624
:103D6000BDF80400D6E7042939D102A9FEF7C1FB4A
:103D70009DF80B1069B30DF1020221463046FEF7A3
:103D800065FB0546074630BB01AA5121304600F0CD
:103D90002DFE0546BDF80400FFF771FF84B29DB902
:103DA0000DF1020201213046FEF750FB054690B9A5
:103DB0000DF106027121304600F018FE0546BDF8EF
:103DC0000600FFF75CFF87B23C1B9DF80220A1B202
:103DD000A5E70C46E4E70027F6E72046A2E72046E1
:103DE00025469FE7F0B5022985B0054617461ED83F
:103DF0000DF105020021FEF729FB0446A0B99DF84C
:103E0000052039462846FFF741FF83B2B3F5807F8E
:103E10009ABF00F1FF32D2B2FF22A5F8D820462186
:103E2000284600F029FE0446204605B0F0BD0329CF
:103E30001FD10DF105020021FEF708FB9DF80520BA
:103E4000394604462846FFF721FF80B2FFF708FFF6
:103E50000246ADF80600A5F8D800002CE4D15121A7
:103E6000284600F019FE04460028DDD1C5F8E470AC
:103E7000DAE704293BD102A9FEF73BFB9DF80B6072
:103E8000B6B10DF1050200212846FEF7DFFA04461F
:103E90000028C9D10DF106025121284600F0A6FDE7
:103EA0000446BDF80600FFF7EAFE002CBCD186B23E
:103EB0000DF1050201212846FEF7C8FA0446002844
:103EC000B2D19DF8052039462846FFF7DFFE16FAE5
:103ED00080F080B2FFF7C4FE71210246284600F050
:103EE000DBFD044600289FD1C5F8DC709CE76FF02D
:103EF000030499E72DE9FF41002312F0010705466D
:103F0000884616468DF8033040F0E580002943D1FD
:103F1000A2F10C03062B00F2DE800C2A78D11822C5
:103F2000572100F0A9FD08225621284600F0A4FDE3
:103F300000286AD17408013CE4B202AA0321284691
:103F4000FFF7CCFEB0B903AA02212846FFF7C6FE50
:103F500080B922465021284600F08EFD50B9029AC1
:103F600003212846FFF73EFF20B9039A0221284685
:103F7000FFF738FF85F8E860002846D169692846D0
:103F8000FEF760FA002840D1024601230DF103013B
:103F90002846FFF7E1F938E0012940F09280A2F1CC
:103FA0000803062B00F29780082A3DD110224821F1
:103FB00000F062FD32464721284600F05DFD0222F6
:103FC00004463221284600F057FD0C2204433021DC
:103FD000284600F051FD64B204434246FF212846C2
:103FE00000F04AFD64B2044364B230223021284616
:103FF00000F042FD3A460443FF21284600F03CFD14
:1040000064B2204340B2002868D004B0BDE8F0811B
:104010000E2A01D1302283E7102A01D140227FE706
:10402000122A4ED150227BE70A2A20D12822482189
:1040300000F022FD08224721284600F01DFD032242
:1040400004463221284600F017FD044364B20922D9
:104050003021284600F010FD42460443FF21284647
:1040600000F00AFD64B2044364B22022BEE70C2AC9
:1040700012D13822482100F0FFFC082247212846AF
:1040800000F0FAFC032204463221284600F0F4FC3A
:10409000044364B20822DBE70E2A12D148221146FB
:1040A00000F0EAFC08224721284600F0E5FC032244
:1040B00004463221284600F0DFFC044364B20722A4
:1040C000C6E77408013CE4B2B8F1000F3FF435AF25
:1040D000B8F1010F05D06FF0030096E77408013CBA
:1040E000E4B201AA04212846FFF7F8FD50B92246A0
:1040F0007021284600F0C0FC20B9019A042128460E
:10410000FFF770FE85F8E06036E713B5144621B17D
:1041100001290FD06FF003000AE00DF107025021D2
:1041200000F01BFC20B99DF8073001335B002370C1
:1041300002B010BD0DF107027021F1E7F0B50023C8
:1041400085B04FF4FA628DE80C0044F61F63994283
:1041500006460F4604D86FF00305284605B0F0BDAB
:1041600002A9FEF7C6F905460028F6D19DF80830E9
:10417000A7F6E8042BB99DF8093013B99DF80A3069
:10418000FBB16A4602213046FFF7A8FDA8BB9DF8A7
:1041900008302BB1009B03F24E239C42DBD9E41A7A
:1041A0009DF80A3033B99DF8093053B1009B03F5EF
:1041B000257303E0009B03F2B2235B00A342CAD243
:1041C000E41A9DF80B305BB101AA03213046FFF7DA
:1041D00085FD019B03F52573A342BCD268B9E41A9F
:1041E0009DF80C30002BB8D0A4F2262204213046D2
:1041F000FFF7F8FD77610546AFE70546ADE770B517
:1042000086B04FF4FA6302930023039340F63633EB
:104210000B600C4604A90646FEF76BF9054600281C
:1042200036D19DF810302BB99DF8113013B99DF897
:104230001230CBB102AA02213046FFF74FFD002811
:1042400040D19DF810302BB1029B03F24E2223681F
:10425000134423609DF81230EBB1029B03F2B222AB
:10426000236803EB420323609DF813305BB103AA7C
:1042700003213046FFF732FD039B03F525722368C7
:1042800013442360F0B99DF8143073B92368736147
:10429000284606B070BD9DF81130002BE4D0029B7B
:1042A00003F5257223681344DDE701AA0421304693
:1042B000FFF714FD019B03F22622236813442360B9
:1042C0000028E3D00546E3E7F7B5002206460D4691
:1042D000104601AFAB5C05EB020E03B108B103B0B1
:1042E000F0BDFF2B02F101042CD12B5D941C032B9C
:1042F0003AD8DFE803F0020C151E295D9EF8033062
:1043000003EB0123141DA6F834312246E2E7295DB0
:104310009EF8033003EB0123141DA6F83631F4E7B1
:10432000295D9EF8033003EB0123141DA6F83831F4
:10433000EBE7295D9EF8033003EB0123141DA6F87B
:104340003A31E2E7042B0FD8295D0232984205DBAF
:10435000D41830463A4600F015FBD6E70EEB0004C1
:10436000A4783C540130F1E76FF00300CDE773B55A
:1043700000230E4613600DF1070105461446FEF7B3
:1043800006F940B99DF807302BB1B28A2B6A534326
:1043900080331B0A236002B070BD13B5CB68136075
:1043A000144601AAFFF7E3FF18B92368019A1344E2
:1043B000236002B010BD0000F8B5B0F85041D0F84D
:1043C0005451079E089F654380352D0A654352B1BD
:1043D000540804EB8124B4FBF2F404EB440464437A
:1043E00004F50044220C069C5C4306F5004104F5EC
:1043F0000044240C090C04FB04F303310624B1FB34
:10440000F4F1C1EBC101B1F5803F3FBF0336B6FB0C
:10441000F4F6C6EBC60606F5004136BF0C0C18498B
:1044200004FB04F105F1200003EB57040C44800960
:10443000B4FBF7F4A403FE237F34B4FBF3F454433A
:10444000FFF72EF94FF47A7604F5FA74B4FBF6F41C
:10445000240104F5FA740746B4FBF6F636B14FF4BE
:10446000FA63B4FBF3F42C44B4FBF6F63046FFF7E2
:1044700017F9099B874294BF1F6018600020F8BDA0
:104480000000F0FF2DE9F04F8DB006460593036A5A
:104490000A938946CB680F69069392460BAAFFF7E9
:1044A0007CFF0AAA49463046FFF761FF054660BB1C
:1044B00096F8E040D6F8DC1022463046FFF7E6FBDF
:1044C000D6F8E41096F8E82083463046FFF7DEFB86
:1044D0000B9BDDF828C0082C4FF47A7404FB03F81A
:1044E00008F5004803F1800323F0FF0214BF032105
:1044F00002215FEA184E04920B92544A09D1059B9F
:10450000CAF80020C6F83C211D6028460DB0BDE861
:10451000F08F5844C002414340F2776B01F5FA71C5
:104520001B0AB1FBF4F10BFB01FB0BF5FA7B4849CD
:10453000BBFBF4FB0BFB03F38033674304FB0CF57D
:104540001B0A07EA0107B7FBFEFE424F099208BFAC
:104550000123B5F5481F28BF4FF448150C20BE4570
:1045600028BFBE4658434FF4167707FB0EF7089155
:10457000FFF796F80899079008EA0108A8EB0500EC
:1045800005F5FA75B9F80810334BA84400F5FA7030
:10459000B8FBF4F8B0FBF4F00002B0FBF8F0050251
:1045A000C5F58035594341F25C23B1FBF3F35D431C
:1045B00005F500452D0C05F580356D086D43AD0BF7
:1045C0004FF4487808FB05F007F5004300F500407C
:1045D0001B0C5B43000C00FB0030FFF761F800048C
:1045E00064233230B0FBF3F0079B40F6B5315B003B
:1045F000B0FBF3F041F2883301FB003042F210735C
:10460000B0FBF3F0B0F5704F28BF4FF4704041F2AB
:10461000041300FB0030FFF743F8099A059B03934E
:104620006043824228BF0246CAF800202B46C6F8E3
:104630003C21CDF808B00197CDF80080069A049986
:104640003046FFF7B9FE05465FE700BFAE878F0231
:104650000000FFFF666666009A9906002DE9F04F9C
:104660008BB04FEAD1099B4600238DF80E308DF8B0
:104670000F308DF810308DF81130ADF812300993ED
:1046800009F00F074FF2A103FB40019203F0010371
:104690000122FF210546159E009300F0EDF928B98F
:1046A0000DF11202B621284600F0A0F9BDF812A0C3
:1046B0004FEA4A2A20B90246FF21284600F0DCF9D9
:1046C000C5F844A128B901460DF10E022846FDF7B0
:1046D000B8FF9DF80E40D4B1002840F0918009AB9E
:1046E00005AA14992846FFF7CDFE002840F08880DF
:1046F000149A099B5381014606AA2846FDF7DCFF60
:10470000069C24B1059B9C422CBF0024012420B9A7
:1047100004AA02212846FDF794FF9DF81080B8F105
:10472000000F0FD000286FD107AA02212846FDF7FD
:10473000C3FF079B002B65D09A4594BF4FF000083C
:104740004FF0010828B90DF1110203212846FDF7A9
:1047500078FF9DF811A0BAF1000F16D000287CD187
:10476000BBF1000F03D0019B1B02B3FBFBFB08AAAC
:1047700003212846FDF7A0FF089A002A47D0934559
:104780002CBF4FF0000A4FF0010A20B9009B002B0C
:104790003FD0FF22327032780AB9149B5A810DF152
:1047A0000F0201212846FDF74CFF30BB9DF80E207B
:1047B000002A08BF0124042F1DBF9DF80F20B2FA64
:1047C00082F25209012285F82F209DF81020002A3C
:1047D00008BF4FF0010808F0010385F830309DF85C
:1047E0001130002B08BF4FF0010A04F001040AF059
:1047F000010A85F82E4085F831A00BB0BDE8F08F96
:1048000000248AE798469DE74FF00008A1E792460A
:10481000BBE77A1E022A01D80522BBE7062F01D08A
:10482000092F01D10422B5E709F00D09B9F1080FEC
:1048300002D0B8F1010F01D10322ABE7042F02D05F
:10484000BAF1010F01D10222A4E7012C01D101220A
:10485000A0E700223270A2469DE74FF0000A9AE7D7
:10486000F8B50F46022106461446FEF74FFF0546EF
:1048700040B996F8F13004F140002BB905493D707C
:1048800003F060FD2846F8BD96F8F2303B7006F163
:10489000F301F5E797A4000837B50C460A460DF179
:1048A00007010546FFF7DCFF00BB9DF80730FBB9A9
:1048B0001549204603F046FD144904F1200003F099
:1048C00041FD04F16002C021284600F046F868B9B5
:1048D0000DF10602C221284600F03FF8012384F8BA
:1048E00061309DF806301B0984F8623003B030BD9A
:1048F000222B03D8202B03D00549DAE7262B01D839
:104900000449D6E70449D4E7F4A500082DA6000819
:1049100000A600080CA6000818A6000813B502F1AE
:104920000A0390F85C410093D0F8580193B20A460C
:10493000214600F04BFE02B010BD13B502F10A0390
:1049400090F85C410093D0F8580193B20A4644F0C5
:10495000010100F0CFFE02B010BD37B502AB154625
:1049600003F8011D012219460446FFF7D7FF28B9B5
:10497000012229462046FFF7E0FF08B16FF013003F
:1049800003B030BD3F2BF8B50F46064611461C4616
:1049900011D80A4D28461A4600F8017B02F0B2FFF2
:1049A000621C29463046FFF7B9FF00280CBF0020E3
:1049B0006FF01300F8BD6FF00300F8BD440F002046
:1049C000F7B502AC164604F8011D01222146054642
:1049D0001F46FFF7A3FF28B93A4631462846FFF79E
:1049E000ACFF08B16FF0130003B0F0BD73B502ABBC
:1049F000154603F8011D012219460646FFF78EFFF2
:104A000018B16FF0130002B070BD074C02222146AE
:104A10003046FFF792FF0028F3D12278637803EB4A
:104A200002232B80EFE700BF440F002073B502ABD9
:104A3000154603F8011D012219460646FFF76EFFD1
:104A400018B16FF0130002B070BD0A4C0422214669
:104A50003046FFF772FF0028F3D1637822781B04F9
:104A600003EB0263E2781344A27803EB02232B608A
:104A7000E9E700BF440F002008B5064B19705A70D3
:104A800019460222FFF74AFF002814BF6FF01300F7
:104A9000002008BD440F002008B5074B1970110A0B
:104AA00059709A7019460322FFF738FF002814BF87
:104AB0006FF01300002008BD440F0020F7B5154625
:104AC0000DF1070206460F461C46FFF746FF48B9A0
:104AD0009DF807202A402243394630468DF80720AA
:104AE000FFF7CAFF03B0F0BD08B5022000F0BCF824
:104AF000002008BD84B007B50DF1100E8EE80F0040
:104B00005D9B002B64D07046FEF734F910B133483A
:104B100003F0ECFB0DF102020DF1010104A8FDF719
:104B2000E9FE10B12E4803F0E1FB0DF1030201A9EB
:104B300004A8FEF724FA10B12A4803F0D7FB00219D
:104B400004A8FDF763FC10B1274803F0CFFB012256
:104B5000002104A8FDF736FD10B1244803F0C6FB80
:104B60000122114604A8FDF72DFD10B11F4803F0E6
:104B7000BDFB41F69912012104A8FDF770FD10B1AB
:104B80001B4803F0B3FB4FF47012002104A8FDF79B
:104B900066FD10B1164803F0A9FB48F2E80104A82D
:104BA000FDF750FC10B1134803F0A0FB12220021C6
:104BB00004A8FDF749FC10B10F4803F097FB0E2243
:104BC000012104A8FDF740FC10B10B4803F08EFB57
:104BD00003B05DF804EB04B0704700BF35A60008D1
:104BE0004FA6000874A600089CA60008B9A60008F5
:104BF000DCA60008FEA6000834A7000838B50A4B5A
:104C0000054618684FF47A73B0FBF3F000F08CF8A7
:104C1000044638B9024629464FF0FF3000F044F808
:104C2000204638BD012038BD0400002010B5032007
:104C300000F028F80020FFF7E1FF044618B9FCF760
:104C4000C5FC204610BD0124FBE70000024A1368A2
:104C500001331360704700BF840F0020014B1868B8
:104C6000704700BF840F002038B50446FFF7F6FFF9
:104C7000631C054618BF0134FFF7F0FF401B844258
:104C8000FAD838BD074AD36823F4E0631B041B0C31
:104C900043F0BF63000243F4003300F4E0600343D9
:104CA000D360704700ED00E0174B30B5DC68C4F30B
:104CB0000224C4F10703251D042B28BF0423062D5D
:104CC0004FF0010505FA03F303F1FF338CBF033CFA
:104CD00000241940A14005FA04F4013C22400028B8
:104CE00042EA01024FEA0212AFBF00F1604000F059
:104CF0000F00064BD2B2A5BF00F56140D2B21A54E4
:104D000080F8002330BD00BF00ED00E014ED00E0AE
:104D10004209012300F01F0003FA00F0014B43F8A1
:104D20002200704700E100E00138B0F1807F0AD234
:104D3000064B074A5860F02182F823100020072212
:104D400098601A6070470120704700BF10E000E0D3
:104D500000ED00E0144B984217D02033984216D053
:104D60002033984215D02033984214D020339842F3
:104D700013D02033984212D02033984211D02033E0
:104D800098420CBF07200020704700207047012088
:104D900070470220704703207047042070470520A9
:104DA00070470620704700BF0060014038B50446D8
:104DB000002867D00068344DFFF7CCFF55F820304D
:104DC000002B5FD12046FCF719FC304B1A680132EA
:104DD0001A601B68012B19D12D4B1A6822F08042F2
:104DE0001A601A68A1680A431A601A6822F47F02DE
:104DF0001A602279012A05D1E1681A68013942EA6C
:104E000001421A601A6842F000421A602068616923
:104E1000036823F471430360236902680B43A169AB
:104E20000B43134303600368216A23F00F030360FD
:104E3000E36902680B43134303608368616AA26AF3
:104E400023F45F0383608368013A0B4343EA024320
:104E500083604368226B03F007034360436843EABF
:104E6000C203E26A43EA02234360036843F080031B
:104E70000360012384F83430FFF76CFF45F82040CD
:104E8000002038BD012038BD240700204407002041
:104E90000060014090F82520022A10B503D00422BA
:104EA000C263012010BD0268046C1168836B21F09D
:104EB0000E011160116821F001011160426C0121A5
:104EC00002F01C0201FA02F26260002480F8251050
:104ED00080F8244013B19847204610BD184610BDF5
:104EE0002DE9F04F85B00B68DFF8A881674C01937E
:104EF0000023019ADA4002D105B0BDE8F08F012607
:104F0000019A9E4012EA060E00F0B1804A6822F033
:104F10001007022F16D14FEAD30900EB890903F0DD
:104F2000070AD9F820504FEA8A0A4FF00F0C0CFA02
:104F30000AFC25EA0C0C0D6905FA0AF545EA0C0590
:104F4000C9F820504FEA430C0325D0F800B005FA09
:104F50000CF5ED4302F0030A0BEA050B0AFA0CF913
:104F6000013F49EA0B09012FC0F8009011D887686A
:104F700005EA0709CF6807FA0CF747EA09078760CF
:104F8000476827EA0609C2F300179F4047EA090766
:104F90004760BAF1030F07D1C76A27EA0606C2F3D2
:104FA000C0079F403E43C662C66835408E6806FA19
:104FB0000CF63543C560D50059D5D8F8605045F09A
:104FC0000105C8F86050D8F8605023F0030606F1D8
:104FD000804605F0010506F58036039503F0030CC5
:104FE000039DB5684FEA8C0C0F2707FA0CF7B0F158
:104FF000904F25EA07073CD0254DA8423BD005F548
:105000008065A84239D005F58065A84237D005F5FE
:105010008065A84235D005F58065A84233D005F5F6
:105020008065A84214BF0725062505FA0CF53D4307
:10503000B56025686FEA0E06D70354BF35404EEAC7
:10504000050525606568970354BF35404EEA0505A0
:105050006560A568D70254BF35404EEA0505A560D6
:10506000E568920254BF35404EEA0505E56001331C
:105070003FE70025D9E70125D7E70225D5E7032536
:10508000D3E70425D1E70525CFE700BF00040140A1
:1050900000040048001002402DE9F74F474CDFF8AC
:1050A00024A1DFF824B100234FF001084FF00309D9
:1050B00031FA03F202D103B0BDE8F08F08FA03F62B
:1050C00011EA060201926AD007685A0009FA02F250
:1050D0004FEAD30C174300EB8C0C0760DCF8207010
:1050E00003F0070E3D464FEA8E0E0F2707FA0EFE1D
:1050F00025EA0E0ECCF820E0D0F808E0D2430EEA04
:10510000020EC0F808E0D0F804E0F6430EEA060EFE
:10511000C0F804E0D0F80CE002EA0E02C260C26AF5
:105120001640C66223F0030606F1804606F5803677
:1051300003F0030EB2684FEA8E0E07FA0EF7B0F1D5
:10514000904F02EA070C2CD01D4A90422BD002F55A
:105150008062904229D002F58062904227D002F509
:105160008062904225D0504525D058450CBF06227C
:10517000072202FA0EF2944511D1B268019D22EA8B
:105180000707B7602268ED432A40226062682A4020
:105190006260A2682A40A260E2681540E5600133BF
:1051A00086E70022E5E70122E3E70222E1E70322A6
:1051B000DFE70422DDE70522DBE700BF0004014052
:1051C0000004004800140048001800480AB181613A
:1051D0007047816270474369594041617047704729
:1051E00008B5044B5969014202D05861FFF7F7FF37
:1051F00008BD00BF0004014003689A69910744BFDD
:1052000000229A629A69D2075EBF9A6942F001024F
:105210009A61704730B5039C05682343640D04F41C
:10522000806444F07F7444F458346868C1F3090121
:1052300044F47F74194344F0030441EA024120EA34
:1052400004042143696030BD2DE9F041069F044606
:10525000884616461D462268936938EA03030CBF48
:1052600001230023B34202D00020BDE8F0816B1C73
:10527000F2D0FFF7F3FCC01B854201D3002DEAD129
:10528000636C43F020036364202384F841300023DF
:1052900084F8423084F840300120BDE8F081036892
:1052A00070B50446986910F010000D46164616D1E8
:1052B00070BD691C14D0FFF7D1FC801B854200D360
:1052C0006DB9636C43F020036364202384F841309C
:1052D000002384F8423084F84030012070BD2368F8
:1052E00099698A06E5D510222025DA612046DD611C
:1052F000FFF782FF2268536823F0FF7323F48B3398
:1053000023F4FF7323F001035360636C43F0040341
:10531000636484F84150DBE770B504460D461646D9
:1053200023689B699B0701D5002070BD3246294642
:105330002046FFF7B4FFA0B96A1CF1D0FFF78EFC3E
:10534000801B854201D3002DEAD1636C43F020031A
:105350006364202384F84130002384F8423084F8C9
:105360004030012070BD0000F7B5099E1F46164B66
:105370000093054614464FF08073FAB2FFF74AFFD8
:10538000324608992846FFF7C7FF10B1012003B045
:10539000F0BD012F2B680CD1E4B29C62089B0096F3
:1053A000002280212846FFF74FFF003018BF012060
:1053B000EDE7220A9A62089932462846FFF7ACFFC9
:1053C0000028E3D12B68E7E700200080F7B5099EAD
:1053D0001F46164B0093054614460023FAB2FFF70A
:1053E00019FF324608992846FFF796FF10B10120B1
:1053F00003B0F0BD012F2B680CD1E4B29C62089B76
:105400000096002240212846FFF71EFF003018BFFB
:105410000120EDE7220A9A62089932462846FFF7F2
:105420007BFF0028E3D12B68E7E700BF0020008066
:1054300070B504460D46164623689B699B0601D548
:10544000002070BD324629462046FFF728FF90B95C
:10545000FFF704FC801B854201D3002DECD1636C67
:1054600043F020036364202384F84130002384F850
:10547000423084F84030012070BD70B504460D46BE
:10548000164623689B695B070ED4324629462046A0
:10549000FFF705FFF0B923689A6991061CD59A6950
:1054A000520703D5228D0AB1002070BD2021D96199
:1054B0005A6822F0FF7222F48B3222F4FF7222F03B
:1054C00001025A600023636484F8411084F842307A
:1054D00084F84030012070BDFFF7C0FB801B85427F
:1054E00001D3002DCDD1636C43F0200363642023EE
:1054F00084F841300023EBE710B5044600284AD079
:1055000090F8413003F0FF021BB980F84020FCF70F
:10551000A7F8242384F841302368E1681A6822F050
:1055200001021A60626822F070621A619A680129A9
:1055300022F400429A60A26824D142F400429A60A8
:105540005A68616942F0007242F400425A60DA68B7
:1055500022F40042DA6022690A43A16942EA012288
:10556000DA60216AE2690A431A601A6842F00102AD
:105570001A6000202023606484F84130206384F89E
:10558000420010BD42F4044202299A6004BF4FF465
:1055900000625A60D4E7012010BD10B5044698B1EE
:1055A0000268242380F84130136823F0010313605C
:1055B000FCF78CF80020606484F8400084F8410017
:1055C000206384F8420010BD012010BD2DE9F7438F
:1055D000984690F84130202B04460E46914640F004
:1055E000848090F84030012B7FD0012780F84070F4
:1055F000FFF734FB1923054600903A464FF400416B
:105600002046FFF721FE18B1012003B0BDE8F0836A
:10561000212384F84130102384F842306064A4F8D8
:105620002A80638DC4F824909BB2FF2B6063304BBB
:1056300026D9FF22228500934FF080733146204601
:10564000FFF7E8FD638D0A999BB22A462046FBB915
:10565000FFF7EEFE0028D7D123682021D9615A68D0
:1056600022F0FF7222F48B3222F4FF7222F0010248
:105670005A6084F8411084F8400084F84200C4E77E
:10568000628D009392B222854FF00073D2B2D5E7BB
:10569000FFF742FE0028B7D1636A226813F8011BA6
:1056A00091626362638D228D013B9BB26385638D42
:1056B000013A92B29BB22285002BC3D0002AC1D1FD
:1056C00000950A9B80212046FFF7BEFD00289BD154
:1056D000638D9BB2FF2B03D9FF2222850090ABE79D
:1056E000628D009092B22285CEE702208DE700BF46
:1056F000002000802DE9F743984690F84130202B98
:1057000004460E46914640F0868090F84030012BCA
:1057100000F08180012780F84070FFF79FFA19237D
:10572000054600903A464FF400412046FFF78CFDB5
:1057300018B1012003B0BDE8F083222384F8413082
:10574000102384F842306064A4F82A80638DC4F882
:1057500024909BB2FF2B6063304B26D9FF22228519
:1057600000934FF0807331462046FFF753FD638D61
:105770000A999BB22A462046FBB9FFF759FE00283A
:10578000D7D123682021D9615A6822F0FF7222F410
:105790008B3222F4FF7222F001025A6084F8411029
:1057A00084F8400084F84200C4E7628D009392B20E
:1057B00022854FF00073D2B2D5E7FFF75EFE0028D6
:1057C000B7D12268636A526A1A70636A228D013304
:1057D0006362638D013B9BB26385638D013A92B234
:1057E0009BB22285002BC2D0002AC0D100950A9B13
:1057F00080212046FFF728FD00289AD1638D9BB2B7
:10580000FF2B03D9FF2222850090AAE7628D00902A
:1058100092B22285CDE702208CE700BF00240080F1
:105820002DE9F04F9B4690F8413085B0202B04467F
:105830000F460392BDF83CA0DDF8408040F0A58003
:105840000E9B13B1BAF1000F06D14FF400736364DD
:10585000012005B0BDE8F08F90F84030012B00F03A
:105860009480012580F84050FFF7F8F91923009043
:1058700006462A464FF400412046FFF7E5FC8146E4
:105880000028E5D1212384F84130402384F84230B8
:105890000E9B606463626063A4F82AA00196CDF851
:1058A00000805B46039A39462046FFF75DFD10B144
:1058B00084F84090CCE7638D9BB2FF2B55D9FF2233
:1058C000228500904FF0807339462046FFF7A2FCF6
:1058D000324641462046FFF71FFD0028B8D1636AD3
:1058E000226813F8011B91626362638D228D013B74
:1058F0009BB26385638D013A92B29BB22285ABB1B4
:10590000A2B90096434680212046FFF79DFC00285F
:105910009ED1638D9BB2FF2B2FD9FF222285009051
:105920004FF0807339462046FFF774FC638D9BB2BD
:10593000002BCDD1324641462046FFF779FD0028A5
:1059400086D123682021D9615A6822F0FF7222F49F
:105950008B3222F4FF7222F001025A6084F8411067
:1059600084F8400084F8420073E7628D009092B2A0
:1059700022854FF00073D2B2A6E7628D009092B2FA
:1059800022854FF00073D2B2CCE7022061E700001D
:105990002DE9F04F9B4690F8413085B0202B04460E
:1059A0000F460392BDF83CA0DDF8408040F0A9808E
:1059B0000E9B13B1BAF1000F06D14FF4007363646C
:1059C000012005B0BDE8F08F90F84030012B00F0C9
:1059D0009880012580F84050FFF740F91923009086
:1059E00006462A464FF400412046FFF72DFC81462B
:1059F0000028E5D1222384F84130402384F8423046
:105A00000E9B606463626063A4F82AA00196CDF8DF
:105A100000805B46039A39462046FFF7D7FC10B159
:105A200084F84090CCE7638D9BB2FF2B364B58D95E
:105A3000FF22009322854FF0807339462046FFF7FE
:105A4000E9FB00964346002204212046FFF7FCFBB9
:105A50000028B5D12268636A526A1A70636A228D7F
:105A600001336362638D013B9BB26385638D013AB1
:105A700092B29BB22285ABB1A2B900964346802177
:105A80002046FFF7E1FB00289AD1638D9BB2FF2BE4
:105A90002FD9FF22228500904FF08073394620468F
:105AA000FFF7B8FB638D9BB2002BCAD1324641464B
:105AB0002046FFF7BDFC002882D123682021D96150
:105AC0005A6822F0FF7222F48B3222F4FF7222F025
:105AD00001025A6084F8411084F8400084F84200C2
