:020000040800F2
:10000000E8160020D5000008199B00089948000850
:1000100000000000000000000000000000000000E0
:10002000000000000000000000000000ABBA000863
:100030000000000000000000CDA5000899D30008D2
:10004000E7000008E7000008AFAC0008E700000880
:10005000E70000081D1900082D1900083D190008C7
:10006000E7000008E7000008E7000008E7000008D4
:10007000E7000008E7000008E7000008E7000008C4
:10008000E7000008E7000008E700000800000000A3
:10009000E7000008E7000008E7000008E7000008A4
:1000A000E7000008E7000008E7000008E700000894
:1000B00027DA0008E700000800000000E700000859
:1000C0000348854600F086FD0048004731EF0008F0
:1000D000E81600200448804704480047FEE7FEE792
:1000E000FEE7FEE7FEE7FEE72DD40008C1000008AA
:1000F00030B50B46014600202022012409E00D46C0
:10010000D5409D4205D31D469540491B2546954047
:1001100040191546521E002DF1DC30BD70B500248B
:100120002546002801DA01244042002901DA012590
:100130004942FFF7DDFFAC4200D04042002C00D026
:10014000494270BDF0B51FB40646002082B0054696
:100150004024019100901BE0019922460F46304651
:1001600000F016FC049A059B801A994110D31046A2
:100170001946224600F0FCFB361A8F4101972246B1
:1001800001200021009F00F0F3FB38184D41009042
:100190002046641E0028DFDC019B00982946324679
:1001A00007B0F0BDF8B500242546002904DA0E4654
:1001B000012400214042B141002B04DA1E460023F5
:1001C00052420125B341FFF7BDFF8C4617461E463C
:1001D000AC4203D0002540428D41AC46002C02D0F9
:1001E000002657429E4161463A46334601B0F0BD73
:1001F000F0B51FB486B000200090019002900698E0
:10020000069980B204900798090C02040014114367
:1002100007900027089D099806913E463C460390AA
:100220000398A9B20204000C039004982D0C154306
:1002300048430021224600F09BFBC719714110344E
:100240000E46402CECDB3846029A00F091FB009AF7
:10025000019B801800905941029801911030029042
:100260004028CCDB00980BB0F0BD03460B439B0746
:1002700003D009E008C9121F08C0042AFAD203E01B
:100280000B780370401C491C521EF9D27047D2B241
:1002900001E00270401C491EFBD270470022F6E7C5
:1002A00010B513460A4604461946FFF7F0FF2046EC
:1002B00010BD0321001D401E037812021A43491E7F
:1002C000F9D510467047F8B502464A40D40F4200AF
:1002D0004B0052085B089A4202D202460846114679
:1002E0004A0023D0C30D4A00DDB2120EAD1A202DF4
:1002F00035DA49020126490AF6058A19002C00D090
:10030000524220214F1B1146B9402A411018C20DFC
:100310009A4221D0002C17D0012D08DCDA05801A72
:10032000D20F8019D207DBB200F05EFBF8BDDA0510
:10033000801A012340001B06C01880185A428018FA
:10034000CA0F1043490007E04908C2071143DA0504
:10035000801A80194008801800F03EFBF8BD61004B
:100360000122511A001BF7E70122D2075140AAE7E8
:100370000122D2075040A6E7024670B54A40D30F8B
:10038000DB0740002DD04A002AD0010E140E0002D7
:1003900012020919400A520A8418E501044654431E
:1003A000000A120A2E045043A4194219200CC54316
:1003B000AA18120C0125AD03521C521912047F39E0
:1003C000240400D0521C104301D44000491EC2B284
:1003D0000C06C0092018401C4008802A02D003E007
:1003E000002070BD40084000002900DA00201843BA
:1003F00070BD70B502464A40D50F40004A00ED0777
:1004000040085208002814D0002A12D0C40DD30D81
:1004100041020120C0055202490A520AE41A091891
:1004200012187D34914201D3641C00E04900002C75
:1004300001DA002070BD0023914201D3891A0343E1
:10044000400849000028F7D100290AD0914202D182
:100450000121C90705E0914201D2012101E00121FA
:10046000C943E005C018401900F0B6FA70BD42005B
:1004700005D04200120E52428A4201DB0020704732
:10048000C905081870470000F0B5074608465840EF
:1004900087B0C00F049048000E4659004008490834
:1004A000BC1A884105D2384631461E4617460B46CF
:1004B00002465800400810434CD0300D03904005D0
:1004C0005900400D490D0590401A0290402872DAFB
:1004D00018030121000B09050843019004980092BC
:1004E000002805D0019952420020884100920190D5
:1004F000029840210A1A0199009800F039FA05463D
:100500000C466B4607CB00F054FAC0197141039AB0
:100510000E0D0023D71756401A467A40164344D092
:10052000049A002A2DD0029A012A039A15DC12059A
:10053000C01A914101263605001C7141D20F059E5B
:10054000D2070093019202962A46234600F092FABF
:1005500007B0F0BD38463146FAE71605224A0F4685
:10056000B218C01AB74101210905001C4F410018FB
:100570007F41114618187941E20F10436D1964410B
:1005800013E0E2076D0815436408C2071443039A99
:1005900001261205C01A91413605001C7141CE0793
:1005A000400830434908C01851412A46234600F00C
:1005B00054FACDE7FFE7049801224000C117121A50
:1005C00000238B4104983146C417381AA141EEE745
:1005D00030B40124E407634030BC55E730B4012453
:1005E000E407614030BC4FE70000E0FFF0B51FB406
:1005F00088B00B990998002448400999C00F490018
:1006000049080991C0070B990090490049080B91CE
:1006100009990898A64608431CD00B990A980843E4
:1006200018D0099801244000420D4800410D099856
:1006300024050003000B204309900B980003000BD6
:1006400020430B9050181C4940180022019014467A
:10065000104605E0002001460DB0F0BD032801DA88
:10066000034600E003239C46C11A0AAE0AE05F007D
:1006700008ADED5B4F00F75B7D430027AA187C4176
:10068000491C5B1E6145F2DD410004AB5A52210456
:10069000120C0A43240C401C0828DFDB019802904E
:1006A0000099704601910090059B049A079906985D
:1006B00000F0E0F9D0E700000DFCFFFFF0B50C46BC
:1006C0005C4085B0E40FE40703944C000026640806
:1006D00059009446490802460296224321D06246B8
:1006E0000A431ED06200570D4A000E032303550D26
:1006F000012402462C492405781B1B0B360B40189D
:1007000023432643614600901C46501AB44103D34C
:100710000098401C009002E0921800985B4100286D
:1007200003DA0020014605B0F0BD002001210905D3
:100730000746864611E064461D46141BB54106D3A4
:100740006546521BB341744607430C43A646CD078A
:1007500040084908284392185B4105460D43EAD1F9
:100760001046184313D06046194650407140084364
:1007700006D06046101AB34106D20122002306E0DB
:1007800000220123DB0702E00122D243531000982C
:1007900074460105381C6141029C039D00196941A2
:1007A00000F05BF9BFE70000FD03000070B54B00EF
:1007B0005B0803430BD04B005C0D002633466542BB
:1007C000B341D417AD1AA34102DB0020014670BD2E
:1007D00012053018514170BDC217C10F504010B5FD
:1007E0004018CA079623002100F0FEF810BD10B58E
:1007F00000229623114600F0F7F810BD0EB5C2177F
:10080000C10F5040CA0740180021054B02930192C6
:1008100000910A460B4600F02DF903B000BD000020
:10082000330400000EB505490291002100910A46EB
:100830000B46019100F01EF903B000BD3304000027
:10084000C20F410040020123400ADB05D207090E16
:10085000C0187F2901DA00207047962903DC96230F
:10086000591AC84001E096398840002AF4D0404225
:100870007047410040020122400AD205090E80184B
:100880007F2901DA00207047962903DC9622511A4D
:10089000C8407047963988407047000070B5CD0F4A
:1008A0004A0009030123090B1B0519430B4BED07F4
:1008B0000024520D9A4201DA002070BD074B3433F8
:1008C0009A4203DC9A1A00F063F802E004495118D6
:1008D00088402C43F1D0404270BD0000FF0300006F
:1008E000CDFBFFFF4A0009030123090B1B05194338
:1008F000094B10B5520D9A4201DA002010BD064B8B
:1009000034339A4203DC9A1A00F042F810BD0349CE
:100910005118884010BD0000FF030000CDFBFFFF11
:1009200010B5002904DB0124E40740428C41214634
:10093000002B04DB1C460123DB075242A3418B4200
:1009400000D1824210BD000010B5002904DB012453
:10095000E40740428C412146002B04DB1C46012366
:10096000DB075242A341994200D1904210BD0000E2
:1009700010B5202A04DB0146203A9140002010BD2A
:10098000914020239C1A0346E3401943904010BD38
:1009900010B5202A04DB0846203AD040002110BDC3
:1009A0000B46D340D0402024A21A91400843194658
:1009B00010BD10B5202A06DBCB170846203A10419F
:1009C000C1170B4306E00B461341D0402024A21A66
:1009D00091400843194610BD002904DA401C490023
:1009E00001D140084000704770B40024050C05D1C7
:1009F0001024000402D1002921D01124050E01D1B8
:100A000000020834050F01D10001241D850F01D11A
:100A10008000A41C002801DB4000641C002908D0D1
:100A200020252E1B0D46F540A14000D00121294371
:100A3000084301061B1B000ADB1D02D5002070BC09
:100A40007047DB05181880180029F8DA401C4900A7
:100A5000F5D170BC40084000704710B5002B08DA93
:100A60000024401C614192185B411A4301D14008A7
:100A7000400010BDF0B51FB482B005460C0003D095
:100A800008460DF021F802E00DF01EF82030024675
:100A9000009021462846FFF76BFF049B059A044609
:100AA0000F4618431143084314D0184610431BD077
:100AB000009840210A1A18460599FFF769FF054674
:100AC0000E46009A05990498FFF752FF084305D097
:100AD000012004E02046394607B0F0BD0020C117D0
:100AE00005430E432C43374300990E986305401A83
:100AF0007905E40A00220C43FD0A0A3002D50020E1
:100B00000146E9E70105101969410C9C0D9D00198A
:100B10006941FFF7A2FFDFE7F8B505464800400846
:100B20000C46284304D06000184A400D904201DD75
:100B30002846F8BD15493539884210DC88420BDB60
:100B4000290D200308432903014305D0E00F104974
:100B5000C00741180020F8BD00200146F8BD161A54
:100B60004020821B28462146FFF702FF07460091DE
:100B7000284621463246FFF70BFF3A46009BFFF717
:100B80006CFF3246FFF7F4FEF8BD000033040000AE
:100B90000000F03F4A0009030123090B1B0519431C
:100BA0000A4B10B5520D9A4202DA0020014610BDE0
:100BB000064B34339A4203DC9A1AFFF7E9FE10BD64
:100BC000034BD218FFF7D4FE10BD0000FF03000056
:100BD000CDFBFFFF064C0125064E05E0E36807CC80
:100BE0002B430C3C98471034B442F7D3FFF76CFA10
:100BF0007CFB00089CFB000870B58C180578401C35
:100C00006B075B0F01D10378401C2A1106D10278D3
:100C1000401C03E006780E70401C491C5B1EF9D195
:100C20002B0705D40023521E0DD40B70491CFAE784
:100C30000378401CCB1A921C03E01D780D70491CF0
:100C40005B1C521EF9D5A142D8D3002070BD000014
:100C500038B50446064805490068FFF749FA60437D
:100C600000E0401E00900028FBD138BD40420F003C
:100C70001C040020F8B50446006881688907890FC4
:100C8000012902D10168C90722D18168114A1026C1
:100C90001140012500290ED181682943816001207E
:100CA000FFF7D6FF01F09AF907460CE001F096F93C
:100CB000C01B0A2807D9A06D3043A065E06D28430A
:100CC000E0650120F8BD20680068C043C007EDD191
:100CD0000020F8BD17000080F0B589B00C4607462B
:100CE0001022002168460EF077F922462432694628
:100CF000084604920DF00FFC684600788725000630
:100D0000694600280FDA00228E18885C7678430046
:100D1000F60933438B54521C0F2AF5DBC87B0A4675
:100D2000400068400DE000228E18885C7678430011
:100D3000F60933438B54521C0F2AF5DBC87B0A4655
:100D40004000D0732068102812D00878000619D50A
:100D500000228E18885C76784300F60933438B5462
:100D6000521C0F2AF5DBC87B0A464000684017E09A
:100D700000202218137D0D5C401C6B401375102859
:100D8000F7DB24E000200B180A5C5B785200DB09DB
:100D90001A430A54401C0F28F5DBC87B0A46400062
:100DA000D0732246256880231432AB54002300E020
:100DB00083542068401C20601028F9D3002022189A
:100DC000137D0D5C401C6B4013751028F7DB002071
:100DD00021180A790B7D401C5A400A711028F7DB54
:100DE0001022211D05A80EF0DFF8394605A8049A47
:100DF0000DF091FB1022002168460EF0EDF809B0CD
:100E0000F0BD10B5044610220021001D0EF0E4F8DC
:100E10000020014620602046F02224300EF0DCF84D
:100E200010BD0B46024610B52432102118460DF0B5
:100E30009DFB10BDF0B504460F46214689B0006801
:100E40001431009110311546079100283CD0102133
:100E50000E1AAE4200D316460099B2B24018394677
:100E60000EF0A2F8206880192060102834D3B54213
:100E700032D0002021180A790B7D401C5A400A719B
:100E80001028F7DB211D201D079A0DF044FBBF1928
:100E9000AD1B19E0002021180A793B5C401C5A4028
:100EA0000A711028F7DB1022211D02A80EF07CF831
:100EB00002A90846079A0DF02EFB102202A9201D58
:100EC0000EF072F8103D1037102DE3D8AAB2394653
:100ED00000980EF069F8256009B0F0BDF7B5234918
:100EE0000F22497A214B511ACDB2197A5B7A0F261B
:100EF000F31A0A46DEB2871E491C0124C9B2761EC7
:100F00003B000CF010FE09060C060C120C06062B1A
:100F10003000164BAA4224D2154CA05403E0134BC8
:100F2000B24215DB1DE019720DE0104EAD1EAA4253
:100F300017DA0F4B985401985854491CC8B20299BB
:100F40001954401C3072002408480121C17108E086
:100F5000074CA05401986054491CE4E7034BAA4293
:100F6000F6D32046FEBD0220FEBD0000CC040020CA
:100F7000D50E002010B500280AD0C268002907D07D
:100F80009269002A04D09047012800D0002010BDAB
:100F9000012010BD00280BD00269002A08D00029CA
:100FA00006D003786A2B03D1126D002A00D01047B7
:100FB0000120704710B50C460021216000280AD09E
:100FC000012804D0204600F01BFA012808D1204651
:100FD00000F0AAF902E0204600F012FA012800D041
:100FE000002010BD10B5002808D0C168896800290C
:100FF00004D08847012800D0002010BD012010BD7A
:1010000010B500280AD0C268002907D09269002ACA
:1010100004D09047012800D0002010BD012010BD51
:1010200010B5002208460A6000F028FA012800D016
:10103000002010BD10B5002808D0C16889680029BB
:1010400004D08847012800D0002010BD012010BD29
:1010500070B5174C0646E078012820D00CF028F92E
:1010600001281CD0BC202070BE2060700025A57017
:10107000E5702571012060710E4823460E49083342
:1010800023C30E4A011F0A6022C03460E168204673
:101090000968002904D08847012807D0002070BDC6
:1010A0001421FFF7FBF80120356070BD3068F7E7C9
:1010B000C0050020A40300200000002068000020DC
:1010C00070B5184C0646E078012821D00CF0F0F8F5
:1010D00001281DD0BC202070BE2060700025A570A6
:1010E000E5702571012060712046234628300E49A5
:1010F000083323C30E490D4A0A6022C03460E168F8
:1011000020460968002904D08847012807D000201C
:1011100070BD1421FFF7C2F80120356070BD306842
:10112000F7E70000E80500203400002068000020F8
:10113000B803002010B500280AD0C268002907D0E3
:101140009269002A04D09047012800D0002010BDE9
:10115000012010BD10B5002208460A60FFF778FF95
:10116000012800D0002010BD10B5002808D0C168AB
:101170008968002904D08847012800D0002010BDCC
:10118000012010BD10B502221449012386B00028A9
:101190001ED0012804D002281AD0032807D117E056
:1011A000CA6A1A43CA62C96AC907C90F05914100D0
:1011B0000B4A8000515A00910021029103210391B2
:1011C000084901930858694600F040FE06B010BD7A
:1011D000CC6A1443CC62C96A1140E7E700100240B0
:1011E000F8F600080C04002010B5054A4100515AD9
:1011F000044A80001058002200F0EAFE10BD0000F2
:10120000F8F600080C04002010B5054A4100515AB8
:10121000044A80001058012200F0DAFE10BD0000E0
:10122000F8F600080C04002070B5194C0546E0786B
:10123000012823D00CF03CF801281FD0B1202070E9
:10124000BA2060700026A670E670267101206071D9
:101250001149E1600F48A06010492161104A011F47
:101260000A6042C02C60E16820460968002906D067
:101270008847012809D003F0BDFF002070BD14216C
:10128000FFF70CF801202E6070BD2868F7E700001A
:10129000D4050020B00300206C000020D400002002
:1012A0004C01002070B51B4C0646E07D012828D07B
:1012B0000BF0FEFF012824D0B1202075BA20607504
:1012C0000120A0750025E575257660762046303032
:1012D000E0611148206211486062124810490160C3
:1012E00021462831CD608860084614383060C168D6
:1012F0000968002906D08847012809D003F07AFF41
:10130000002070BD1421FEF7C9FF0120356070BDBB
:101310003068F7E7E8050020A00000201001002059
:101320004C010020BC03002070B5184C0546E07D40
:10133000012822D00BF0BCFF01281ED033202075DD
:10134000322060750120A0750026E675267660764D
:1013500020463030E0610E48666220622046283028
:101360000C49C660816014382860C168096800298A
:1013700004D08847012807D0002070BD1421FEF753
:101380008DFF01202E6070BD2868F7E74806002019
:1013900004030020DC03002070B5164C0646E078FC
:1013A00001281ED00BF084FF01281AD040202070A5
:1013B0003C2060700025A570E570257101206071EA
:1013C0000D4822460D49083223C2011F22C0346055
:1013D000E16820460968002904D08847012807D021
:1013E000002070BD1421FEF759FF0120356070BD4B
:1013F0003068F7E734060020D403002054030020AF
:1014000070B5194C0546E078012824D00BF050FF48
:10141000012820D06A202070D62060700026A67097
:10142000E67026710120607110492046E160283085
:10143000A0600F49216110490E4A0A6042C02C6029
:10144000E16820460968002906D08847012809D0AC
:1014500006F02EFC002070BD1421FEF71FFF0120B6
:101460002E6070BD2868F7E7480600206002002063
:101470005401002000030020E003002070B5194C47
:101480000546E078012824D00BF012FF012820D077
:101490006A202070D62060700026A670E670267143
:1014A000012060711149E1600F48A060104921617D
:1014B0000146104A08310A6042C02C60E1682046AB
:1014C0000968002906D08847012809D006F0F0FBFA
:1014D000002070BD1421FEF7E1FE01202E6070BDDA
:1014E0002868F7E720060020C0030020B002002093
:1014F000240200200003002010B500280AD0C26892
:10150000002907D09269002A04D09047012800D012
:10151000002010BD012010BD10B5002208460A6051
:10152000FFF73AFF012800D0002010BD10B50028B9
:1015300008D0C1688968002904D08847012800D0F4
:10154000002010BD012010BD10B5002808D0C268D1
:10155000926A002A04D09047012800D0002010BDD4
:10156000012010BDF0B50446284887B0C36A0222A6
:101570001343C362C36A13400593436B01252B4396
:10158000436300206500224EA300224F002920D093
:10159000012928D1715B029000911F480190F858F1
:1015A000694600F053FCB51E2A57FF20C021002ACF
:1015B0001BDA13071B0F083B9E08184BB600F618E2
:1015C000F3699207D20E9040834391400B43F3613D
:1015D00017E0715B01900091032002920390F8588C
:1015E000694600F033FC07B0F0BD96080C4BB6001E
:1015F000F61833689207D20E9040834391400B4314
:101600003360285700F000FFEDE7000000100240B3
:10161000F6F60008080400200000111000ED00E0BC
:1016200000E400E010B500280AD0C268002907D005
:101630009269002A04D09047012800D0002010BDF4
:10164000012010BD10B5002208460A60FFF7ECFD2E
:10165000012800D0002010BD10B5002808D0C168B6
:101660008968002904D08847012800D0002010BDD7
:10167000012010BD10B500280AD0C268002907D08B
:101680009269002A04D09047012800D0002010BDA4
:10169000012010BD10B50C460021216000280AD0A1
:1016A000012804D02046FFF70BFD012808D1204671
:1016B000FFF7F8FD02E02046FFF702FD012800D009
:1016C000002010BD10B5002808D0C1688968002925
:1016D00004D08847012800D0002010BD012010BD93
:1016E00010B51C490020FFF735FD1A490020091DDF
:1016F000FFF7D0FF17490024E44308312046FFF7E5
:10170000A1FF144920460C31FFF754FC1149204633
:101710001031FFF785FC0F4920461431FFF7FCFE1E
:101720000C4C241F6068FFF71FFDA068FFF7CAFF7D
:10173000E068FFF791FF2069FFF754FC6069FFF74D
:1017400079FCA069FFF7F2FE0221A069FFF7FCFE19
:1017500010BD0000280400203EB5044600201A4DAC
:1017600000900190029069466868FFF7E3FC01A9C8
:10177000A868FFF77FFF02A9E868FFF753FF134946
:101780006869FFF73DFC1149A8690C31FFF7B4FE09
:101790000E4928690C39FFF7EDFB0098A06001980D
:1017A0006060029820600A48E0600A4820610748AB
:1017B00025460C380EC818350EC50EC80EC507C80C
:1017C000303407C43EBD0000240400203C08002043
:1017D0000D093E00AB03050010B5054C207800282C
:1017E00005D1611C2069FFF7D5FB6078207010BD22
:1017F00024040020FFB5002085B000900546064671
:1018000001900024770007980121C05BA1400842A5
:1018100030D028190C2203905043089A1258002AFD
:1018200028D0059A002A01D1890723D008994118A8
:10183000082002910856021100070117069840B2CD
:1018400009F0AEFF002815D002980C21407A4843D9
:101850000E9940188068002804D00198401CC0B23E
:10186000019007E0009A0F99039888540098401C53
:10187000C0B20090641CE4B2102CC4D31035761CA6
:10188000EDB2F6B2102DBCD31099019808700098F3
:1018900009B0F0BD30B587B014216846FEF7FEFCF4
:1018A0001A4CE16A02200143E162E16A184D0140ED
:1018B0000120019002900320039005910F20000366
:1018C00000906946284600F0C1FA0022A11428467B
:1018D00000F07EFB012100224903284600F078FB3E
:1018E00000222901284600F073FB002269012846E6
:1018F00000F06EFB606B29030843606300F07EFA22
:1019000000F08CFA00F082FA07B030BD00100240FF
:101910000004005010B502F081FD10BD10B501208B
:1019200000F088FA022000F085FA10BD10B50420FE
:1019300000F080FA082000F07DFA10BD10B51020EC
:1019400000F078FA202000F075FA402000F072FADA
:10195000802000F06FFAFF20013000F06BFA0120C8
:10196000400200F067FA0120800200F063FA0120D3
:10197000C00200F05FFA0120000300F05BFA0120D2
:10198000400300F057FA0120800300F053FA0120D1
:10199000C00300F04FFA10BDFEE701460020062903
:1019A00000D101207047000010B5094A0021CB008A
:1019B000D458844207D89B189B68834203D9C80037
:1019C0008018007910BD491CC9B21529EFD3FEE774
:1019D00044F60008F8B5054604464035287D002643
:1019E000012808D001202875206881688907890F9F
:1019F00001290ED101E00220F8BD0168C90708D015
:101A0000A06D20210843A0650126002028753046DE
:101A1000F8BDA16DFF220132914302221143A1655D
:101A2000C1688907890F0091C16889088900C16070
:101A30002068816892071143816000F0CFFA074661
:101A40000EE000F0CBFAC01B0A2809D9A06D0221D4
:101A5000884310210843A065002028750120F8BDA7
:101A6000206880680028ECDB2068C168009A114378
:101A7000C160A06D80088000401CA065C5E7000023
:101A8000F8B506460D464036317D01290DD00121BD
:101A9000317501688A68520709D5816D202211438A
:101AA0008165002030750120F8BD0220F8BD174B7C
:101AB0006A68D80547109A42154C8A6A2B6812D07A
:101AC0005B035B0B1A438A622968490305D5A16849
:101AD0000143A1600A20FFF7BBF82868800312D5F4
:101AE000A06838430EE05B035B0B9A438A62296867
:101AF000490302D5A1688143A1602868800302D50B
:101B0000A068B843A06000203075F8BD0110000047
:101B1000002701400068006C7047000070B50400A9
:101B200006D0A06D264600254036002802D006E0EB
:101B3000012070BDE5653575204600F0D1F8A06D37
:101B4000C00603D421688868400705D5A06D102120
:101B50000843A0653575EBE7A06DFF220132904385
:101B600002221043A06588688207920F5A48012A12
:101B700002D10A68D2072BD1032362689B079A42DD
:101B800005D05B429A4202D05B009A4209D10A69B1
:101B9000920092080A6121680A6963681A430A611F
:101BA0000CE00A69920092080A6181680F2292048F
:101BB0009143816081686268114381602168CA68CD
:101BC00018239A43CA602168CA68A3681A43CA6086
:101BD000816801225206914381608168228F5206FA
:101BE0001143816020688168C90004D481680122A2
:101BF0001207114381602068C168384A1140C160F2
:101C00002169E068022923D000210843216A226B60
:101C10004903520011430843616B0843A1698903DA
:101C20000843E169C90308432168CA681043C860D2
:101C3000A06A0146FF39C23905D0E16A084321682C
:101C4000CA681043C860606A0121012802D00BE015
:101C50000421DAE7206A002823D0A06D2022104357
:101C6000A065E06D0843E065206C012820681FD066
:101C70000169C90703D00169490849000161206869
:101C80004169C908C900416120684169E26B11439B
:101C90004161E565A06D80088000401CA0650020C2
:101CA00070BD2068C26801231B041A43C260DBE7D1
:101CB0000269FF239B009A43026120680269636CFA
:101CC000E66C1A43A36C33431A430261206802692D
:101CD0000A430261D3E70000002701401902FEFF1A
:101CE0007047F8B504464069254640350E46082839
:101CF0000BD02068C068C00709D0A06D2021084320
:101D0000A065002028750120F8BD082700E00C27F9
:101D100000F064F9009011E0701C0FD0002E05D087
:101D200000F05CF90099401AB04207D9A06D042177
:101D30000843A065002028750320F8BD20680068CE
:101D40003842E9D0A06D012149020843A06520680E
:101D5000C16809058A0F0C21002A1AD1226A002ABB
:101D600017D10268120714D5826853070122002B8D
:101D700008DB43688B434360A06D13029843104314
:101D8000A06506E0A06D20231843A065E06D104318
:101D9000E065A069002801D1206801600020F8BD3D
:101DA00070B50446216800208968490721D425467A
:101DB0004035297D01291CD001212975E1690129BE
:101DC00004D02046FEF756FF002811D1A16D0A4A23
:101DD0001140FF2201321143A1650021E1652975FF
:101DE00022681C21116021688A6804231A438A60D2
:101DF00070BD022070BD0000FEF1FFFF0248416887
:101E00000122114341607047005801400248416877
:101E10000422114341607047005801400248416864
:101E200002221143416070470058014010B502F092
:101E3000F3F910BD10B504494A69024202D0486165
:101E4000FFF7F4FF10BD000000040140F8B50023C7
:101E50000124A7E027469F403A4070D04D68022DEC
:101E600001D0122D14D1DD08AD002D1800952D6A7A
:101E70005E07AC46F50E0F26AE46AE406546B5434E
:101E8000AC460E697546AE4065462E43009D2E62F7
:101E90004D68012D05D0022D03D0112D01D0122D3A
:101EA00016D185680326AC465D00AE46AE40654659
:101EB000B543AC46CE687546AE4065462E43866057
:101EC00046680D79BE43ED06ED0F9D4035434560F4
:101ED00006685F000325BD40AE46AE430D79B446AB
:101EE000AE07B60FBE4065462E430660C66875460F
:101EF000AE438D68BD403543C5604D68ED0050D59B
:101F00002B4D6E6B26436E639E082A4DB6007519E5
:101F1000AC46AD689E07360F0F27B740BD43052777
:101F20003F07B84201D100271AE0234FB84201D140
:101F3000012715E0214FB84202D1022710E030E01E
:101F40001F4FB84201D103270AE01E4FB84201D10A
:101F5000042705E01C4FB84201D1052700E0062701
:101F6000B7402F436546AF60184D2E684F689643C3
:101F7000FF0300D516432E606E684F689643BF037B
:101F800000D516436E60AE684F689643FF0200D5D9
:101F90001643AE60EE684F689643BF0200D5164305
:101FA000EE605B1C0A681546DD4000D052E7F8BDC4
:101FB00000100240000001400004005000080050E2
:101FC000000C005000100050001C005000040140A4
:101FD000002A01D081617047816270470148006822
:101FE000704700002004002070B5040014D02421A4
:101FF0002046403005464170206801684908490084
:102000000160204600F0BEF900216164697021631F
:10201000A9702970084670BD012070BD403040781D
:102020007047000070B5040006D02546403568783A
:102030000026002802D005E0012070BD2E70204649
:1020400000F0A1F92420687020680168490849005F
:1020500001600F21606809068843216808612168D2
:102060008A680120C00382438A60E1680129A1686F
:1020700008D021229202114322689160E16802296E
:1020800002D005E00143F7E701212268C90251604F
:1020900021684A680F4B1A434A602168CA68824324
:1020A000CA60616920690843A1690902084321687F
:1020B000C860216AE06908432168086020680168F7
:1020C0000122114301606664202068702663AE70AF
:1020D000002070BD00800002FFB505460446403573
:1020E000687883B0202873D10C98002871D00D989F
:1020F00000286ED0287801286AD001202870FFF7C8
:102100006DFF0746012200901923D103204602F0FB
:10211000EDFC002876D1222068704020A8700026AF
:1021200066640C9860620D98608566630E980090F6
:10213000019704A90EC9204602F05CFC002804D0D7
:10214000606C2E70042860D05CE0618D09208002F4
:10215000FF2905D9FF22228501231B06009006E0F6
:10216000618D21850090208D0123C2B25B0620463F
:10217000049902F0A9FC00970022042120460E9B3E
:1021800002F0B4FC00283DD12068416A606A421C1C
:1021900062620170208D401E81B22185608D401EDB
:1021A0006085002921D1608D00281ED00097002273
:1021B000802120460E9B02F099FC002822D1608DE0
:1021C000FF2807D9FF22228501231B06009608E07D
:1021D0002AE01AE0608D20850096208D0123C2B28E
:1021E0005B062046049902F06FFC608D0028C2D186
:1021F0003A4620460E9902F09DFC002807D0606CFC
:10220000042802D0032007B0F0BD0120FBE72168BD
:102210002020C86121684A68044B1A404A606870EF
:10222000AE702E700020EEE70220ECE700E800FE22
:10223000FFB5054604464035687883B0202876D13E
:102240000C98002874D00D98002871D028780128A7
:102250006DD001202870FFF7C1FE074601220090D3
:102260001923D103204602F041FC002853D121203C
:1022700068704020A870002666640C9860620D9813
:10228000608566630E980090019704A90EC92046E8
:1022900002F0E5FB002804D0606C2E7004286AD0A0
:1022A00039E0608DFF2805D9FF22228501231B0616
:1022B000009606E0608D20850096208D0123C2B235
:1022C0005B062046049902F0FFFB3A4620460E9931
:1022D00002F057FC002803D0606C04284BD01AE0B1
:1022E000606A411C6162216800788862608D401ECE
:1022F0006085208D401E0004000C208524D1608D57
:10230000002821D000970022802120460E9B02F059
:10231000EDFB002802D0032007B0F0BD608DFF2840
:1023200007D9FF22228501231B06009608E024E03E
:1023300021E0608D20850096208D0123C2B25B06CE
:102340002046049902F0C0FB608D0028BDD13A46BA
:1023500020460E9902F0EEFB0028BDD12068202116
:10236000C16120684268064B1A4042606970AE70D5
:102370002E700020D0E70120CEE70220CCE700003D
:1023800000E800FE7047704702480168491C016080
:10239000704700002004002010B5064801680222A2
:1023A00011430160032000F007F800F007F8002057
:1023B00010BD0000002002400020704710B50B48FF
:1023C000816B02041143816300F046F800F03CF891
:1023D0000748026808210A43026002688A430260D3
:1023E00000F02AF801F098FF10BD00000010024034
:1023F00000200240C106C90E012088400149086042
:102400007047000080E200E0C106C90E012088404C
:10241000014908607047000000E100E0C106C90EF4
:1024200001208840014908607047000000E200E098
:1024300010B507F073FB10BD024801680215114387
:102440000160704700700040024801684215114366
:1024500001607047007000400248016810229143FB
:102460000160704700700040F8B5664907460125D5
:102470000020ED03624B634A4031102F6FD011DC16
:10248000012F77D0022F6CD0042F6BD0082F24D1CE
:10249000C9680324240321407BD0BD026C10A942EB
:1024A0007CD0A0E00326584C3604202F0BD0402FC0
:1024B00035D0FF3F012F10D1C968314069D07C046D
:1024C000A1426BD096E00B690969012731403F04B6
:1024D000B94203D1990559E02846F8BD01256D049C
:1024E000A94203D19907F8D54848F8BDB142FCD1BB
:1024F00011688903F9D51168032000050140012006
:102500000005091A09D0091A05D0814201D14048B5
:10251000F8BD2046F8BD3F48F8BD3F48F8BDC96842
:102520000125AD06294006D0A942F7D19168890757
:10253000F4D53A48F8BD11688901FBD5D068D16857
:102540008002374D000F2D5C0802810FD068491CB6
:10255000C0030AD41068C00605D5204606E045E051
:1025600008E023E030E0184600E02E486843FDF71D
:10257000BFFDF8BDCC68A407A40F0CD0022C0DD071
:10258000012C10D0032CF4D1096989050029A3DBA3
:10259000F8BD16E002E000F0D1F9F9E7116849074B
:1025A000F6D51846F4E700F0D9F9F1E7CC680C2627
:1025B000344006D0082CF1D0042CF4D00C2CE3D0FD
:1025C000E6E700F0ABF9E3E7CC680326B602344057
:1025D000F7D00127FF02BC42E0D07A109442E2D04B
:1025E000B442D1D0D4E7A142DDD0D1E7916B49020A
:1025F000E7D4CDE7012212049142D4D0C8E700000D
:102600000024F4000010024000093D008890000002
:1026100020A1070040420F0080841E00006CDC02F5
:1026200010F7000800127A00F8B5044600785E4DF5
:10263000800672D55C4E0027403EB06BC00004D4CB
:10264000B06BA9050843B063012758480168C90564
:1026500011D40168821511430160FFF7BFFC00909F
:1026600005E0FFF7BBFC0099401A642837D84F48B3
:102670000068C005F5D532680321090560680A4085
:102680000140914208D08103890F032904D13168A8
:10269000890301D50120F8BD2A69032109040A40F4
:1026A00022D0084090421FD0207880061CD528698F
:1026B0002A6988430121C9040A432A612A698A4395
:1026C0002A612861C0050FD5FFF788FC009008E05B
:1026D000FFF784FC0099411A3548814201D9032053
:1026E000F8BD28698005F3D561688803800F032849
:1026F00005D132680005824301400A4332602869EF
:10270000032261681204114008432861002F04D09D
:10271000B06B012109078843B0632078C00705D05A
:10272000E868A168800880000843E8602078800796
:1027300005D5E8680C218843E1680843E860207803
:10274000400706D5E86803218902884321690843C8
:10275000E8602078000706D5E8680321090388436C
:1027600061690843E8602088C00506D5E868032150
:1027700009048843A1690843E8602078400606D52B
:10278000E868012189068843216A0843E8602078C7
:10279000000606D5E868032189048843E1690843F7
:1027A000E8600020F8BD00004010024000700040CA
:1027B00088130000F8B5054653480E460068C00768
:1027C000C00FB0420AD2504801684908490031435D
:1027D00001600068C007C00FB0426FD128784B4C31
:1027E000800705D5E068F0218843A9680843E060C8
:1027F0002878C00752D06868022817D0032818D05C
:102800002168012818D08905002957DAE16889086C
:1028100089000143E160FFF7E1FB6968074602298F
:1028200012D003291CD0012926D033E02168890366
:10283000EAE721688901E7E74907E5E7FFF7CEFB0B
:10284000C11B3348814223D8E0680007800F02286B
:10285000F4D123E0FFF7C2FBC11B2D48814217D8FA
:10286000E0680007800F0328F4D117E0FFF7B6FBFC
:10287000C11B274881420BD8E0680007800F012860
:10288000F4D10BE0FFF7AAFBC11B2148814201D91B
:102890000320F8BDE0680007800FF3D11A480168F3
:1028A000C907C90FB1420BD9016849084900314332
:1028B00001600068C007C00FB04201D00120F8BD20
:1028C0002878400706D5E068072109028843E968AF
:1028D0000843E0602878000707D5E0680721C902AF
:1028E00088432969C9000843E06000F037F8E168CF
:1028F000084A0906090F515CC840074908600320CF
:10290000FFF75AFD0020F8BD0020024000100240F1
:102910008813000000F700081C0400200448054943
:102920000068C968044A4905490F515CC8407047AE
:102930001C0400200010024019F700080448054953
:102940000068C968044A8904490F515CC84070474F
:102950001C0400200010024019F7000810B5184AA6
:10296000D1680C20084004280BD0082810D00C286F
:1029700010D050680004410F0120C003491C88405A
:1029800010BD1068C00601D50E4810BD0E4810BD20
:102990000E4810BD88020E4B000F185C0902D36868
:1029A000890F491CDB0301D5084A05E01268D206ED
:1029B00001D5044A00E0044A5043FDF799FB10BDDD
:1029C0000010024000093D000024F40000127A00CB
:1029D00010F70008F8B504460078FF4DC0074CD04A
:1029E000E8680007800F022807D0E8680007800F1A
:1029F000032809D1E868C00306D5286880033CD5C0
:102A00006068002875D038E00120626800048242C6
:102A100003D129680143296011E0052301211B042A
:102A200089049A422A6802D10A432A60F1E7824364
:102A30002A602A68024000922868884328606068FB
:102A400000280DD0FFF7CAFA0646E44F04E0FFF76E
:102A5000C5FA801BB8427DD828688003F7D50CE002
:102A6000FFF7BCFA0646DD4F04E0FFF7B7FA801B1C
:102A7000B842F0D828688003F7D42078800741D581
:102A8000E8681F270007800F3F02012807D0E86889
:102A90000007800F032809D1E868C00306D428681E
:102AA000400717D5E068012823D113E0E06800282B
:102AB00017D029680922914301432960FFF78EFA54
:102AC000064604E0FFF78AFA801B0228C3D828686C
:102AD0004007F7D568682169B84309020843686070
:102AE00010E02868400840002860FFF777FA0646A3
:102AF00005E090E0FFF772FA801B0228ABD8286847
:102B00004007F7D42078C00676D5E868B44E0007B1
:102B1000800F0BD0E06900285DD02868FF210131CB
:102B200008432860FFF75AFA074644E02868800502
:102B300002D5E06900286ED0606A69683140884239
:102B400012D908F04DF80028AED16868616AB04328
:102B5000084300E0E4E068606868218C0002000A35
:102B60000906084368600FE06968B1430143696082
:102B70006868218C0002000A090608436860606AE0
:102B800008F02EF800288FD1606A410B0120C003A5
:102B9000491C8840E968934A0906090F515CC840FE
:102BA000914908600320FFF707FC25E0FFF716FABC
:102BB000C01B02288AD828688005F7D56868616A32
:102BC000B043084368606868218C0002000A090667
:102BD0000843686010E02968FF20013081432960C4
:102BE000FFF7FCF9064604E0FFF7F8F9801B02281E
:102BF00084D828688005F7D420787C4E000723D538
:102C000060690028306910D0012108433061FFF766
:102C1000E5F9074605E009E1FFF7E0F9C01B0228E6
:102C20007ED830698007F7D50EE04008400030615B
:102C3000FFF7D4F9074604E0FFF7D0F9C01B0228DC
:102C40006ED830698007F7D42078400761D5A86B2B
:102C50000027C00005D4A86B012109070843A86319
:102C6000012763480168C90511D401688215114321
:102C70000160FFF7B3F9009005E0FFF7AFF90099A5
:102C8000401A64284CD85A480068C005F5D5FF2082
:102C9000A2680130824203D131690143316111E000
:102CA00001218902002A07D005231B029A4203D181
:102CB00032690A433261EFE7326982433261306937
:102CC00088433061A06800280ED0FFF787F9009094
:102CD00006E0FFF783F90099411A404881421FD866
:102CE00030698005F5D50DE0FFF778F9009006E032
:102CF000FFF774F90099411A3848814210D83069B9
:102D00008005F5D4002F04D0A96B01200007814372
:102D1000A9632078800630D53649A0694A1400E0BE
:102D20007DE0002816D0AB6801200343AB606B6BDD
:102D300003436B63086A10430862FFF74FF90646C6
:102D400004E0FFF74BF9801B022868D8A8688007C9
:102D5000F7D512E0A86840084000A860086A9043D0
:102D60000862FFF73BF9064604E0FFF737F9801BDE
:102D7000022854D8A8688007F7D4A06A002853D046
:102D8000E9680907890F032950D001263606022871
:102D9000286805D0B0432860FFF720F9044640E0DA
:102DA000B0432860FFF71AF9074604E0FFF716F969
:102DB000C01B022833D828688001F7D4216BE06A51
:102DC000EA680843616BFD231B049A4311430843DF
:102DD000E860286830430FE00010024088130000CC
:102DE00000E0000000F700081C0400204010024032
:102DF00000700040000001402860FFF7EFF8044633
:102E000004E0FFF7EBF8001B022808D828688001CF
:102E1000F7D509E0FFF7E2F8001B022801D90320EB
:102E2000F8BD28688001F5D40020F8BD0120F8BD68
:102E3000704730B5014620310A78012A15D00122A9
:102E40000A7002234B700468CA2363620468532328
:102E5000636203689C6820252C439C600068FF2304
:102E600043624A700020087030BD022030BD10B5AA
:102E70000AF02EFB10BD000070B5044600688168A2
:102E80008025C90400290BDAC068C00508D5204692
:102E9000FFF7EDFF2168C8682840FF388238C86016
:102EA0002068816889040BD5C068800508D5204654
:102EB000FFF7BEFF2068C168054A29408918C16034
:102EC000012004494004486101202034607070BD35
:102ED0007FFDFFFF00040140F8B50546044620359C
:102EE000287801281DD001202870022068702268EF
:102EF000CA205062226853205062FF200130002611
:102F0000FF2781421CD121688A6882438A60206839
:102F100081680122120391438160FFF75FF80090FE
:102F200009E00220F8BDFFF759F80099411A7D2009
:102F3000C00081421BD82068C068C007F3D020E0E1
:102F40002068816801225202914381602068816873
:102F5000120191438160FFF741F800900DE0FFF707
:102F60003DF80099411A7D20C000814205D92068B2
:102F70004762032068702E70F8BD2068C068800723
:102F8000EDD520684762012068702E700020F8BDE2
:102F900010B500680B464068C021C94301400002DB
:102FA000000ECC04D870E40E5C708C06A40E0904EC
:102FB000490F9C701970002A0AD107F049FED87099
:102FC000587807F045FE5870987807F041FE9870E1
:102FD000002010BD30B50B460168896A5960016850
:102FE00009694904490C9960006804680F48214642
:102FF000014088024D04800E18706D0E49065D7008
:10300000490E99706102490E40242140D970002A6E
:103010000AD107F01DFE1870587807F019FE587095
:10302000987807F015FE9870002030BD7F7F7F00F4
:1030300070B5040005D0254620356878002802D0F8
:1030400006E0012070BD00202870204600F042F804
:10305000022068702168CA204862216853204862B3
:10306000204607F008FEFF210028206803D04162B7
:1030700004206870E5E78268154B1A408260226878
:1030800090686368A66918432369334318439060C6
:103090002268E06810612068026923891B041A43D2
:1030A00002612068C26880239A43C2602068C26CB3
:1030B00092089200C264E269606902432068C36CAE
:1030C0001A43C2642068416201206870002070BD0C
:1030D000BFFF8FFF00B597B00420009000200A903A
:1030E000FF20013002906846FFF774FC002801D0F1
:1030F000FEF752FC20200E90C0020F900EA8FFF7A2
:1031000093FA002801D0FEF747FC08480169012224
:10311000920411430161002211460220FFF788F951
:103120000220FFF771F917B000BD00004010024007
:10313000FEB506460446203630780B46012842D0BC
:10314000012030700220707020681D460027203555
:103150008068002A39D0400655D5187807F078FDE8
:10316000287807F075FD197898780904084359788C
:10317000DA78090212041143084329780906084342
:10318000D96908435969084305469969586808434D
:1031900000902168CA204862216853204862FF20BD
:1031A0005A6A0130802182424AD12268936883435F
:1031B00093602268D0680840FF388238D060FEF7FC
:1031C0000DFF019029E00220FEBD400600D4DF7013
:1031D000187807F045FD0204587807F041FD000219
:1031E0000243987807F03CFD0243D878000402437C
:1031F000287807F035FD00060243D8690243586974
:1032000002431546C1E7DF70AAE7FEF7E7FE019922
:10321000411A7D20C00081422AD82068C068C007BA
:10322000F3D02068C56121680098486420688168EF
:10323000FF2201321143816020688168120130E071
:103240002068826801235B029A4382602068C2681A
:103250000A401D495118C160FEF7C0FE01900EE002
:10326000FEF7BCFE0199411A7D20C000814206D9BB
:103270002168FF204862032070703770FEBD20680F
:10328000C0688007ECD520680562216800988864D2
:1032900020688168012252021143816020688168A0
:1032A00012011143816009480268012149040A435F
:1032B000026082680A4382602168FF204862012020
:1032C000707037700020FEBD7FFDFFFF00040140DD
:1032D000F8B505460446203528780B46012815D058
:1032E00001202870022068705878002A10D007F05A
:1032F000AFFC987807F0ACFCD8789E7800040643C1
:103300005878197800024903084316E00220F8BDF6
:10331000C10603D5EF2108400A305870D87807F06D
:103320009FFC0604587807F09BFC0002064398783F
:1033300007F096FC06431878400306432168CA202C
:103340004862216853204862204607F094FC002719
:10335000002811D110480640206846602068C168E6
:1033600080229143C1602068806880060CD420468A
:1033700000F08CF8002807D02168FF204862042064
:1033800068702F700120F8BD2168FF20486201207D
:1033900068702F700020F8BD3FFFFF00F8B50646AB
:1033A0000446203630780D4601280ED001203070BA
:1033B00002207070206800278068002A07D040062D
:1033C0001AD5287807F044FC17E00220F8BD400623
:1033D00000D4EF70287807F043FC0204687807F007
:1033E0003FFC00020243A87807F03AFC0243E87869
:1033F0000004024300920BE0EF702978A8780904DA
:1034000008436978EA7809021204114308430090DE
:103410002168CA204862216853204862204607F08C
:103420002AFC00281FD1184900980840216808602C
:103430002068816801229204914381602969E868CB
:10344000084321688A68104388602068C168802228
:103450009143C1602068806880060CD4204600F04B
:1034600015F8002807D02168FF20486204207070FA
:1034700037700120F8BD2168FF204862012070707C
:1034800037700020F8BD00007F7F7F0070B50446D4
:103490000068C168A0229143C160FEF79FFD7D26B0
:1034A0000546F60006E0FEF799FD401BB04201D943
:1034B000032070BD2068C0688006F4D5002070BD70
:1034C00070B5040006D025464035687C00260028EB
:1034D00002D005E0012070BD2E74204600F032F8C5
:1034E0000220687420680168402291430160A1684D
:1034F000606822690843E168114308436169012259
:103500000843A169520211400843E1690843216A56
:103510000843A16A084321680860A0690421000CDF
:103520000840616A0843216848602168E06A0861D0
:103530002068C16992009143C16166650120687489
:10354000002070BD7047F8B5044600276846078024
:1035500026464036707C012802D0707C22287ED11D
:1035600000290CD0002A0AD0002B08D0307C01287A
:1035700075D001203074707C012802D003E0012056
:10358000F8BD322070746765A263A387E387216367
:10359000A386E386A764E7640125A06A6D03A842B9
:1035A00007D120680168A9430160206801682943A8
:1035B000016020680168490603D401684022114374
:1035C00001600121FF20E268C90205308A4261687A
:1035D00066D1002904D081420CD1E08E012809D1A6
:1035E000206B21680088C860206B801C2063E08EFF
:1035F000401EE086E08E002843D1A06AA84246D152
:103600002068016801221203114301603FE0206835
:10361000C068A16B0880A06B801CA063B0E0002292
:1036200002212046069B08F0E7F900287DD1206B97
:1036300021680088C860206B801C2063E08E401EDB
:10364000E086E08E002808D1A06AA84205D1206853
:1036500001680122120311430160002200E0CCE066
:1036600001212046069B08F0C7F900287FD1206879
:10367000C068A16B0880A06B801CA063E08F401E17
:10368000E087E08E0028CAD1606800287BD1002244
:1036900001212046069B08F0AFF9002867D1B6E764
:1036A000002904D081420BD1E08E012808D1206B83
:1036B000411C216321680078C860E08E401EE086CE
:1036C000E08E002845D1A06AA84205D12068016893
:1036D0000122120311430160002201212046069BB2
:1036E00008F08AF9002842D12068C068A16B0870F0
:1036F00046E0002202212046069B08F07DF90028C2
:1037000035D1206B411C216321680078C860E08EB0
:10371000401EE086E08E00280AD1A06AA84207D1A8
:10372000206802680121090300E020E00A430260EA
:10373000002201212046069B08F05EF9002816D1E0
:103740002068C268A06B411CA1630270E08F401E1C
:10375000E087E08E0028CCD16068002813D10022D9
:1037600001212046069B08F047F9002802D00320DB
:10377000F8BD08E02068C168A06B421CA26301701C
:10378000E08F401EE087A06AA8420FD100220121ED
:103790002046069B08F030F9002802D0606D022117
:1037A0000EE02068C06869460880088801228021F0
:1037B0002046069B08F020F9002804D0606D2021E7
:1037C00008436065D3E701207074A06AA84211D154
:1037D00020688168C943C9060CD4616D0222114377
:1037E00061650168A943016020680168294301609F
:1037F0003774C4E637740020BAE70220B8E770B522
:10380000040005D025466035687A002802D006E01D
:10381000012070BD00202872204600F027F82420E7
:10382000687220680168490849000160606A0028E0
:1038300002D0204609F018FF204609F0ABFF01280E
:10384000E7D0206841680922D20291434160206894
:1038500081682A2291438160206801680122114316
:103860000160204609F066FF70BD000010B50448F5
:10387000816B01225204114381630BF08FFD10BD57
:1038800000100240FFB5064604466036707A83B0E9
:103890000D46202858D1002D0CD00598002809D0BD
:1038A0000120A1680003814207D12069002804D1CA
:1038B000E80702D0012007B0F0BD307A012843D0DC
:1038C000012030720020E06621207072FEF786FB36
:1038D000019027464037059838820598788218E08D
:1038E000788A401E78820698009000228021204627
:1038F000019B0AF067F8002818D10120A168000395
:10390000814202D12069002812D02168287888627B
:103910006D1C788A0028E3D106980090002240218F
:103920002046019B0AF04EF8002808D00320C2E789
:1039300028882168C005C00D8862AD1CE9E72020F9
:10394000707200203072B6E70220B4E738B5044642
:103950006B460122202100F024FA00280CD16A468F
:1039600011788020014311706B46012220212046EE
:1039700000F05EFB002800D0012038BD38B50446B9
:10398000002069460870204600F046F9012805D05D
:10399000694620780978884201D0012038BD00208E
:1039A00038BD38B504466B460122202100F0F9F9F4
:1039B00000280DD1684600786B464106490E6846DE
:1039C000017001222021204600F032FB002800D0A7
:1039D000012038BD38B514460D466B46012227211B
:1039E00000F0DFF9002801D0012038BD68460078DA
:1039F0008007C00F287068460078C007C00F20708D
:103A0000002038BD10B50B4601220F2100F0C9F986
:103A1000002800D0012010BDF3B583B007466B46E7
:103A20000222302100F0BDF9002824D16846007838
:103A30006B464508684640780222400802903621CD
:103A4000384600F0AEF9002815D168460024045F1E
:103A50006B4602223A21384600F0A3F900280AD129
:103A600068460026865F6B4602222821384600F011
:103A700098F9002802D0012005B0F0BD6846002763
:103A8000C75F2846FCF7A8FE0190301BFCF7A4FE98
:103A900006460298401BFCF79FFE0546381BFCF7C4
:103AA0009BFE2946FCF768FC3146FCF7A2FC019915
:103AB000FCF709FC0A49FCF75FFC0A49884202DD71
:103AC0007D20C00008E0FF21C905C84201D30020C5
:103AD00002E0FCF7CEFE80B2049908800020CBE71C
:103AE0000000204100007A4438B50C46694600F0D9
:103AF0001FF801280CD06846007800280BD0012858
:103B000007D002280AD003280AD0064820600120E6
:103B100038BD7F20C0052060002038BD0248FAE78C
:103B20000248F8E7000080BF0000E0400000484184
:103B300038B50C466B460122202100F032F90028EE
:103B400001D0012038BD694608788007800F0870D1
:103B50002070002038BD0000F3B585B007466B46E5
:103B60000222322100F01DF900282BD101AB0122E5
:103B70003521384600F015F9002823D16A4611791D
:103B800012788807800D10430C2211406A46527843
:103B900089011143C510C81003906B4604223C21D3
:103BA000384600F0FEF800280CD1684600240226B2
:103BB000045F865F6B4602222A21384600F0F1F846
:103BC000002802D0012007B0F0BD68460027C75F7B
:103BD0002846FCF701FE0290301BFCF7FDFD06466F
:103BE0000398401BFCF7F8FD0546381BFCF7F4FD75
:103BF0002946FCF7C1FB3146FCF7FBFB0299FCF7B9
:103C000062FB0449FCF7B8FBFCF71AFE0699088032
:103C10000020D8E70000204110B5FFF7F3FE01288F
:103C200000D0002010BD10B5FFF7A8FE10BD10B5E4
:103C300004468068006800684078002804D1204667
:103C400000F056F8012805D0A1680020096809682D
:103C50000870E07010BD1CB50C4601AA6946FFF75C
:103C6000B9FE012806D068460078002803D0012854
:103C700001D001201CBD207000201CBD38B50D46B0
:103C8000002469460C80FFF7C7FE012808D068466B
:103C90000088FCF7ACFD0349FCF7ABFB286020462D
:103CA00038BD00000000204110B5FFF71DFF10BD1A
:103CB00010B5FFF7B1FF10BD10B50446806800686D
:103CC00000684078002804D1204600F051F801280F
:103CD00006D0A1680120096809680870E07000201A
:103CE00010BD10B500F06BF8012800D0002010BD09
:103CF00010B504460079002810D0A068006800685C
:103D0000C078002804D1204600F062F8012805D0D0
:103D1000A1680020096809688870207110BD10B57D
:103D200004460079012806D0A06800680068C078C1
:103D3000002802D006E0002010BD204600F04FF819
:103D40000128F9D0A16801200968096888702071EC
:103D5000F1E710B500F072F810BD10B500F082F870
:103D600010BD10B500F072F9012800D0002010BD80
:103D700010B50446FFF702FE012811D02046FFF7D8
:103D800010FE01280CD00121204600F02FF8012858
:103D900006D00021204600F051F8012800D0002074
:103DA00010BD10B51C46012A01D9802319431346C2
:103DB000224609F085FA002800D0012010BD10B578
:103DC00013460122FFF7EDFF012800D0002010BDAF
:103DD00010B5FFF7E6FD012800D0002010BD10B59A
:103DE000FFF7B4FD012800D0002010BD38B50C4607
:103DF0000546012905D0002C03D00E490E4800F0DD
:103E00002FF96B4601222021FFF7CBFF00280FD1AD
:103E100069460978FB200140A00008436946087004
:103E20006B4601222021284600F002F9002800D02C
:103E3000012038BD6302000038FB000810B50B00FC
:103E400009F071FE0504060606060D00012100E0DA
:103E5000032100F01DF8012800D0002010BD012032
:103E600010BD00007F2210B5D205914201DC012176
:103E700005E0064A914201DC022100E0032100F046
:103E800007F8012800D0002010BD00000000E0402D
:103E900038B50C00054609D0012C07D0022C05D0FE
:103EA000032C03D00D490E4800F0DAF86B460122CE
:103EB0002021FFF776FF00280DD1694608786B4670
:103EC000800880002043087001222021284600F04D
:103ED000AFF8002800D0012038BD0000BA02000071
:103EE00038FB000810B5FFF749FD10BD10B50446BA
:103EF0008068006800680078002804D1204600F03F
:103F000057F8012805D0A1680020096809684870A1
:103F1000E07010BD1CB50C466A4601A9FFF75AFDBA
:103F2000012806D068460078002803D0012801D077
:103F300001201CBD207000201CBD10B5FFF7D4FD72
:103F400010BD000038B50D46002469460C80FFF70F
:103F500003FE012808D06946085FFCF73DFC0349D1
:103F6000FCF747FA2860204638BD000000002041D9
:103F700010B5FFF751FE10BD10B50446806800680B
:103F800000680078002804D12046FFF7F1FE0128E0
:103F900006D0A1680120096809684870E070002017
:103FA00010BD10B5FFF70BFF012800D0002010BD99
:103FB00010B504460079002810D0A0680068006899
:103FC0008078002804D12046FFF702FF012805D0A1
:103FD000A168002009680968C870207110BD10B57B
:103FE00004460079012806D0A0680068006880783F
:103FF000002802D006E0002010BD2046FFF7EFFEAB
:104000000128F9D0A168012009680968C8702071E9
:10401000F1E710B5FFF712FF10BD10B5FFF722FF53
:1040200010BD10B500F012F8012800D0002010BD1E
:1040300010B51C46012A01D9802319431346224694
:1040400009F056F9002800D0012010BD07B502ABD9
:104050000122FFF7EDFF012800D000200EBD000077
:104060000A46014601A009F00DFDFEE757726F6E8A
:104070006720706172616D65746572732076616C22
:1040800075653A2066696C65202573206F6E206C1B
:10409000696E652025640D0A0000000010B5124805
:1040A000017800291ED10122027011480F490160D8
:1040B00000210164C161D307816143608263816033
:1040C000C160016207234162C3630261C1620422CD
:1040D000426101630748416B421511434163044843
:1040E000FDF71CFD10BD00006C0400200024014001
:1040F000D80A0020001002407CB51E490646097807
:104100000020002934D01C484168C9430907FBD46A
:104110001A4C606B65152843606300211848FDF751
:1041200059FC184800901848019069461448FDF75A
:10413000A7FCA0140190694600961148FDF7A0FC69
:104140000F48FDF72DFE0021C9430D48FDF7C9FDBD
:104150000B48FDF7DFFC0A4980B20A689368022623
:1041600033439360096803220A60616BA94361636A
:104170007CBD00006C040020007000400010024074
:10418000D80A0020FFFF07000110000001460020B0
:104190000A0A00D00820084A114201D00422104324
:1041A000064A114201D002221043054A114201D0B1
:1041B0000121084370470000F0F00000CCCC000063
:1041C000AAAA000038B50B231B07C518114B0FD046
:1041D0001C152D1B18D02D1B19D0A542DD6A05D149
:1041E00008242543DD62DB6A234007E08024F8E7EA
:1041F000DC6A01252C43DC62DB6A2B4000931160F2
:104200001146FDF723FE38BDDD6A0224E9E7DD6AC9
:104210000424E6E70010024010B5FFF7B7FF810065
:1042200002484058002800D0804710BD54080020A4
:1042300070B51C4615460E460846FFF7A7FF002C32
:104240000DD0074980000C50304605F06FFB044646
:1042500000222946FEF7ECF82046FEF7D5F870BD9F
:104260005408002010B5D2B2FDF7B2FE10BD000018
:1042700070B500240E48FFF73FFF0E4E0E4D0100B3
:1042800013D00E483246008B5043FBF731FFB0424B
:1042900001D9FE2409E0A84207D3401BFE21484370
:1042A0004B210901FBF724FFC4B2204670BD00007A
:1042B00000000244B80B0000080700006000F81F6F
:1042C00003494A690869496A5040484070470000FC
:1042D0004000F81F0F494B6A0A69D218120EC271CA
:1042E0004B6A0A69D218120C82710A8A8B8CD21816
:1042F000120A42710A7C8B8CD21802714A69120E22
:10430000C2704A69120C82708A8A120A4270097D50
:10431000017070474000F81FF0B587B0142168465F
:10432000FBF7BCFF224CE06A01210843E062E06A2F
:1043300008400590E06A02252843E062E06A2840D0
:104340000590E06A04263043E062E06A3040059060
:10435000E06A80273843E062E06A694638400590A9
:1043600003200190002002901248009005200007D1
:10437000FDF76CFD1048009069461048FDF766FD9A
:1043800069460F48FDF762FD69460E48FDF75EFD80
:10439000E06A40084000E062E06AA843E062E06A48
:1043A000B043E062E06AB843E06207B0F0BD0000ED
:1043B00000100240FF9F0000FFFF000000040050BB
:1043C00000080050001C005010B5124C6078002806
:1043D0001ED1FFF763FE10480068804700F0EAF93D
:1043E00000F0A0F80AF0B8FFFDF77AF90020FCF71A
:1043F000C9FE0120FCF7C6FE0220FCF7C3FE032025
:10440000FCF7C0FE00210846FDF7ACF80120607003
:1044100010BD00006C040020B0F5000870B5410E1E
:10442000C0017D220023FBF78DFE054600F072F8E7
:10443000044600E000BF00F06DF8001BA842F9D36D
:1044400070BD000070B505460C4600222048FEF7FE
:10445000C1FD002229461E486668FEF799FD00222C
:1044600021461B48FEF7B6FD6068B042F1D1E878FE
:10447000184A01465043C01C8308880726D01649B5
:1044800068783D220646504302463C3A7000801E42
:10449000C1408807D10F8918800F4910081AC01829
:1044A000A978401E08180D493C2248436178E12351
:1044B000514322781B015A438918A2781018081812
:1044C000074A61688002511A401870BD0549D7E754
:1044D00094080020B5050000A0AA990080510100B1
:1044E000FF03000050554400032070470148006856
:1044F00070470000E008002000B587B0694605A8B5
:10450000FFF7A0FF0249096807B0401A00BD00008C
:10451000E008002000B587B0694605A8FFF792FFC4
:1045200007B000BD10B5084C207800280AD100F073
:104530003BF8FF2101310548FEF7CEFC00F064F89E
:104540000120207010BD00004004002094080020CD
:1045500010B5012005F0D8F90148FEF78DFC10BD1B
:104560009408002070B50446FFF7C6FF211A0D4DD0
:104570000220285EC01C814203D9012005F0C4F945
:1045800002E0012005F0B4F905F0CAF9002805D1D0
:10459000012005F0B9F90220285E241A204600F017
:1045A0003FF870BD4004002010B51449144886B08F
:1045B000002412C01F21016084600461114944611C
:1045C00041600838FEF734FD6946CC750120487516
:1045D00088750875002205A90948FEF779FE009440
:1045E000019404940022694605480394FEF7D6FE20
:1045F0000348FEF71EFC06B010BD00000028004076
:1046000094080020FF03000010B5044C2046211D33
:104610001830FFF717FF206010BD0000E0080020F1
:10462000F0B587B004461422454901A8FBF71DFEEA
:1046300043485038406E009000F08CF8012041490A
:104640004003886140480299404A401AA105890DFB
:10465000081887B2A10A68468078534202E0891898
:10466000401C80B29942FAD26A461579E1221201C1
:1046700002E0891A6D1CADB29142FAD26A465479B1
:1046800002E0641CA4B23C393C29FAD29279511858
:104690008EB20121890203E07A1A761C97B2B6B273
:1046A0008F42F9D203E03C3E641CB6B2A4B23C2E69
:1046B000F9D203E03C3C6D1CA4B2ADB23C2CF9D263
:1046C00003E0183D401CADB280B2182DF9D2694606
:1046D000C978890769464A782FD01D49491E515C1F
:1046E000814202D2FBF704FD08461749CA1B144950
:1046F0002C394A60052252068A618E704C700A4637
:104700000D70203210706846C079C8700020C861F2
:10471000FF2248610132C8604A62086102460846C9
:104720002438FEF705FD01A96846FFF78BFE01203E
:1047300004494003886207B0F0BD05490C31CDE75C
:10474000E408002000040050FF03000080AEFEFFDC
:1047500021F7000810B506480168C868802210409B
:10476000FF388238C86051000148FEF7B5FB10BD24
:104770009408002010B57D2109F0BDF94906C00953
:10478000084310BD10B5410EC0017D220023FBF788
:10479000D9FC10BD01B582B00020C04300900123B8
:1047A00001AA02A90248FEF7CEFE684680880EBD27
:1047B000FC08002010B51C481A4901601C4A1B4B1C
:1047C0000021126803E05208491C072901D29A42CD
:1047D000F9D84A078B07D20FDB0F52011B011A438E
:1047E000C90700D008210A43C2610021816001612C
:1047F0004161FF22C1600532816242600122016293
:104800005202826141620B48416B82141143416341
:104810000548FEF755FE002801D0FDF7BDF800F071
:104820000BF810BD00300140FC0800208096980075
:104830001C0400200010024030B585B014216846E9
:10484000FBF72CFD02200190029003200390002032
:1048500004906A4608210F48FFF7B4FC052424079A
:104860006A4640212046FFF7ADFC6A46802120467B
:10487000FFF7A8FC01210191CD0302916A46294668
:104880002046FFF79FFC012229462046FFF7EAFC5D
:1048900005B030BD0004005000BFFDE710B503486F
:1048A000FDF7A2FB00F004F810BD00007405002025
:1048B00010B50E48FDF7B2FB00280DD10B480C498E
:1048C0004160332181600121C1600A49016000F02B
:1048D00013F80648FDF7A6FB0448FDF79FFB2028C8
:1048E00001D0012010BD002010BD00007405002083
:1048F0002E11B1000054004010B5164C86B0E16A8C
:1049000002200143E162E16A039001400591032125
:1049100009020020009102901221042001910490CC
:1049200069460D48FDF792FAA16B0120400501434D
:10493000A163A16A0143A162A16A8143A16200222D
:1049400011461720FDF774FD1720FDF75DFD06B039
:1049500010BD0000001002400004005001688A6988
:10496000D243920701D400228A6200688169C94358
:10497000C90703D08169012211438161704700009A
:10498000F7B5044600680E468069C043C0062CD4C3
:1049900020272546403520688069C04380060FD512
:1049A000701CF8D0002E05D0FDF718FB0299401AB4
:1049B000B042F0D96F700020A87028700320FEBDAF
:1049C00021681020C8612068C7612046FFF7C6FF34
:1049D00020684168064A11404160042060646F709D
:1049E0000020A87028700120FEBD0020FEBD000040
:1049F00000E800FEF8B504460120164640031D46B7
:104A0000DAB20090079F0023204600F05DF83A4696
:104A10002046069900F0B5F8002803D0606C042801
:104A20001BD018E02846F5B2012809D02168300AC9
:104A300088623A462046069900F0A3F80028EDD196
:104A4000206885620097002240212046069B00F0E6
:104A50004DF8002800D00320F8BD0120F8BDF8B5BE
:104A600004460120164640031D46DAB2C3020090F8
:104A7000079F204600F028F83A462046069900F0A5
:104A800080F8002803D0606C04281BD018E028466A
:104A9000F5B2012809D02168300A88623A462046DA
:104AA000069900F06EF80028EDD120688562009725
:104AB000002280212046069B00F018F8002800D034
:104AC0000320F8BD0120F8BD70B50568049C686836
:104AD0008905890D1204044E1143194330402143C6
:104AE0000143696070BD0000009800FCF8B51C46E9
:104AF00017460E46054611E0601C0FD0002C05D06D
:104B0000FDF76CFA0699401AA04207D920204035DB
:104B100068700020A87028700320F8BD286881699B
:104B20003046884304D00020B842E5D00020F8BDCC
:104B30000120F9E770B516460D4604461AE03246E4
:104B400029462046FFF71CFF002801D0012070BD38
:104B5000002D04D0FDF742FA801BA8420AD9616CEF
:104B6000202001436164403460700020A0702070F8
:104B7000032070BD20688069C0438006DFD4002018
:104B800070BD70B516460D4604461CE032462946F7
:104B90002046FFF7F5FE002801D0012070BD681CFB
:104BA00011D0002D04D0FDF719FA801BA8420AD9B4
:104BB000616C202001436164403460700020A0706B
:104BC0002070032070BD20688069C0438007DDD459
:104BD000002070BD38B504460020694608702046A4
:104BE00000F016FA012805D0694620780978884235
:104BF00001D0012038BD002038BD70B514460546EF
:104C000000F080F9012806D02146284600F0D4F9AA
:104C1000012800D0002070BD1CB50C46694600F08C
:104C2000F9F8012803D068464078207000201CBDA8
:104C30001CB50C46694600F0EDF8012803D0684623
:104C40000079207000201CBD1CB50C46694600F0A0
:104C5000E1F8012803D068468078207000201CBD50
:104C600038B50C46694600F0C2F8012803D0684602
:104C700000782070002038BD1CB50C46694600F055
:104C8000C9F8012803D068460078207000201CBDB8
:104C90001CB50C46694600F0BDF8012803D06846F3
:104CA000C078207000201CBD10B500F0D6F8012897
:104CB00000D0002010BD10B5002905D0012907D073
:104CC000022909D0012010BD002100F0F1FA06E010
:104CD000002100F008FB02E0002100F01FFB01288A
:104CE000F1D0002010BD10B5002905D0012907D052
:104CF000022909D0012010BD012100F0D9FA06E0F7
:104D0000012100F0F0FA02E0012100F007FB012888
:104D1000F1D0002010BD10B560290DD006DC0029AF
:104D20000AD0202908D0402904D105E0802903D0E9
:104D3000E02901D0012010BD00F00BFB0128FAD0C2
:104D4000002010BD10B500F039FB012800D0002074
:104D500010BD10B5002903D0012901D0012010BDDC
:104D600000F046FB0128FAD0002010BD10B5002944
:104D700003D0012901D0012010BD00F004FB01285F
:104D8000FAD0002010BD10B5002903D0012901D0B0
:104D9000012010BD00F02CFB0128FAD0002010BD2E
:104DA00038B50C466B460122272100F002FA002894
:104DB00001D0012038BD68460078C107C90F617075
:104DC000022108402070684600788106C90FC0069D
:104DD000A170C00FE070002038BD10B50B46012255
:104DE0000F2100F0E6F9002800D0012010BD38B5F1
:104DF0000C466B460122142100F0DBF9002801D09B
:104E0000012038BD694608784009400108702070CB
:104E1000002038BD38B50C466B460122262100F033
:104E2000C8F9002801D0012038BD6846007800226A
:104E3000C10921714106C90FE1708006800E012170
:104E40002070002803D06270202804D000E0617038
:104E5000A270002038BDA170FBE710B50C460B46D0
:104E60000122142100F0A5F9002801D0012010BD75
:104E70002078C006C00E2070002010BD38B50C464A
:104E8000694600F02DF8012812D0684600783028D5
:104E900016D006DC00280ED010280AD0202804D115
:104EA0000CE040280ED050280ED008482060012089
:104EB00038BD7F20C0052060002038BD0448FAE7D7
:104EC0000448F8E70448F6E70448F4E7000080BF28
:104ED000000020410000C841000048420000964206
:104EE00038B50C466B460122102100F062F900280B
:104EF00001D0012038BD684600787021084020703C
:104F0000002038BD38B50C4600210091694600F0FC
:104F10000DF8012807D00098FBF75EFC0249FBF76B
:104F200068FA2060002038BD0000C84238B50C4641
:104F3000694600F00EF8002801D0012038BD009825
:104F400064214843C117090D081800132060002090
:104F500038BD38B50D4600246B460322282100F0E9
:104F600028F9002801D0012038BD002069460A5CDC
:104F7000C3009A40401C1443C0B20328F7D3200258
:104F800002D5FF200006044300202C6038BD38B550
:104F90000C466B4602222B2100F00BF9002801D0B1
:104FA000012038BD6846407801026846007808183C
:104FB0002080002038BD000038B50C4600216A462C
:104FC0001180694600F010F8012809D069460020D8
:104FD000085EFBF701FC0349FBF70BFA2060002099
:104FE00038BD00000000204138B50C466946FFF787
:104FF000CEFF002801D0012038BD69460020085EA0
:105000000A2148436421FBF789F82080002038BD3D
:1050100010B5FFF7E2FE012800D0002010BD00000F
:1050200070B50C460546FFF7D5FD012826D014487B
:1050300060600121284600F0CFFA01281ED000212F
:10504000284600F0AEFA012818D00021284600F0CA
:10505000EAF9012812D00021284600F0FFF90128C2
:105060000CD00221284600F006F9012806D00021C4
:10507000284600F0E5F8012800D0002070BD0000AF
:105080000000C84110B5FFF7A5FD10BD70B505467D
:105090008068006804686078002804D1284600F021
:1050A00038F8012802D000202070E87070BD38B5B3
:1050B0000C466946FFF774FE012803D06846407825
:1050C0002070002038BD10B5FFF7D8FE10BD10B518
:1050D000FFF718FF10BD10B5FFF79AFF10BD70B5B0
:1050E00005468068006804686078002805D121467C
:1050F0002846FFF795FF012803D001202070E870B3
:10510000002070BD10B500F06CF8012800D0002020
:1051100010BD70B5044680680068056820790028D5
:105120000BD0E878002805D10021204600F039FA9C
:10513000012802D00020A870207170BD70B505460E
:105140008068006804682879012809D0224628462A
:10515000616800F0B9F9012803D00120A07028711E
:10516000002070BD10B5826803791268012B1268A7
:1051700005D000F0D5F9012800D0002010BD00F0C6
:10518000EFF9F8E710B5826803791268012B12680D
:1051900005D000F07FF9012800D0002010BD00F0FC
:1051A00093F9F8E710B500F0E0FA012800D00020EC
:1051B00010BDFFB581B01E4615460F4600240CE019
:1051C0003819C1B232190123019808F079F8002882
:1051D00002D0012005B0F0BD641CAC42F0DB002021
:1051E000F8E710B513460122FFF7E3FF012800D0CE
:1051F000002010BD00B50F4887B0C26A02210A43E3
:10520000C262C06A039108400590480200900A48B3
:1052100001900020029069460848FCF717FE002222
:1052200011460720FDF704F90720FDF7EDF80020EF
:1052300007B000BD00100240000011100004005033
:1052400038B50C4605466B4601221121FFF7B1FF28
:1052500000280ED169460A78EF2002402001104351
:1052600008706B4601221121284600F066FA0028DA
:1052700000D0012038BD38B50C4605466B460122EA
:105280001021FFF796FF002801D0012038BD6846A5
:105290000178FD2001402143684601706B460122E0
:1052A0001021284600F049FA0028EFD0002038BD30
:1052B00038B50C4605466B4601221221FFF779FFEF
:1052C00000280ED169460A78EF20024020011043E1
:1052D00008706B4601221221284600F02EFA0028A1
:1052E00000D0012038BD38B50C4605466B4601227A
:1052F0001221FFF75EFF00280ED169460A78DF20F1
:1053000002406001104308706B46012212212846BA
:1053100000F013FA002800D0012038BD38B50C4643
:1053200005466B4601221221FFF743FF00280ED1EC
:1053300069460A78F7200240E000104308706B4687
:1053400001221221284600F0F8F9002800D001209F
:1053500038BD38B50C4605466B4601221421FFF7CF
:1053600028FF00280DD1694608786B46C006C00E9C
:105370002043087001221421284600F0DEF900289D
:1053800000D0012038BD38B50C4605466B460122D9
:105390001121FFF70EFF00280ED169460A78BF20C1
:1053A0000240A001104308706B46012211212846DB
:1053B00000F0C3F9002800D0012038BD38B50C46F4
:1053C00005466B4601221421FFF7F3FE00280DD19C
:1053D000694608786B464009400120430870012265
:1053E0001421284600F0A9F9002800D0012038BD7A
:1053F00038B50C4605466B4601221121FFF7D9FE50
:1054000000280ED169460A78DF200240600110436F
:1054100008706B4601221121284600F08EF9002801
:1054200000D0012038BD38B50C4605466B46012238
:105430001021FFF7BEFE00280ED169460A78F7203A
:105440000240E000104308706B46012210212846FC
:1054500000F073F9002800D0012038BD38B50C46A3
:1054600005466B4601221021FFF7A3FE00280ED14E
:1054700068460178FB2001402143684601706B4675
:1054800001221021284600F058F9002800D0012000
:1054900038BD00007F20C005814209DD06488142F9
:1054A00006DD0648814203DD0548814200DD0548EE
:1054B0005060002070470000000020410000C841FB
:1054C000000048420000964270B505467F20C005A6
:1054D0001446814201DC10210FE00E48814201DCBC
:1054E00020210AE00C48814201DC302105E00B4814
:1054F000814201DC402100E05021284600F051F8B3
:10550000012806D0211D2846FFF7B8FC012800D04D
:10551000002070BD000020410000C841000048424A
:1055200000B50B0008F0FFFA0504070B0D0F110082
:105530007F20C00500E006485060002000BD0548FF
:10554000FAE70548F8E70548F6E7012000BD000046
:10555000000020410000C84100004842000096427F
:1055600070B5144605460B0008F0DDFA0504060880
:105570000A0C1900102106E0202104E0302102E08D
:10558000402100E0502100F00CF8012806D0211D38
:105590002846FFF773FC012800D0002070BD0120D1
:1055A00070BD38B50C4605466B4601221021FFF749
:1055B00000FE00280ED1684601788F20014021436B
:1055C000684601706B4601221021284600F0B5F8AC
:1055D000002800D0012038BD38B50C4605466B4682
:1055E00001221A21FFF7E5FD00280DD16946087850
:1055F0006B46400840002043087001221A212846CB
:1056000000F09BF8002800D0012038BD10B5FFF74E
:10561000E1FA10BD70B5054680680068046820781E
:10562000002804D1284600F038F8012802D00020D4
:105630006070E87070BD38B50C466946FFF7B0FB86
:10564000012803D0684600782070002038BD10B5CE
:10565000FFF714FC10BD10B5FFF7AEFC10BD10B580
:10566000FFF7D6FC10BD70B5054680680068046879
:105670002078002805D121462846FFF7D1FC0128D3
:1056800003D001206070E870002070BD10B5FFF7F6
:10569000A8FD012800D0002010BD70B50446806828
:1056A00000680568207900280BD0A878002805D16B
:1056B00000212046FFF775FF012802D00020E87086
:1056C000207170BD70B5054680680068046828794F
:1056D000012809D0224628466168FFF7F5FE012817
:1056E00003D00120E0702871002070BD10B58268E1
:1056F00003791268012B126805D0FFF711FF01280A
:1057000000D0002010BDFFF72BFFF8E710B582682E
:1057100003791268012B126805D0FFF7BBFE012840
:1057200000D0002010BDFFF7CFFEF8E710B500F065
:105730001CF8012800D0002010BDFFB581B01E4626
:1057400015460F4600240CE03819C1B23219012366
:10575000019807F0CDFD002802D0012005B0F0BD72
:10576000641CAC42F0DB0020F8E707B502AB012275
:10577000FFF7E3FF012800D000200EBDF3B58DB088
:105780000D4600273E4601A90D9800F0A5F802A994
:105790000D9800F0B0F86846007A082803D16946F1
:1057A0000979002907D06946097902460A4305D0DC
:1057B000002806D007E00227082408E00127062475
:1057C00005E0082902D000200FB0F0BD042403A991
:1057D0000D9800F072F86846007B00280BD0102866
:1057E00004D0202804D0302805D103E0012602E0AF
:1057F000022600E0032604A90D9800F041F81F4896
:1058000079010F18F600B9196B4610229A5E03C988
:105810002241D317FAF7ECFCFF23F5330022C0181E
:1058200051415A000023FAF7BDFC2860B9196B46B4
:1058300012229A5E03C92241D317FAF7D9FCFF233B
:10584000F5330022C01851415A000023FAF7AAFC90
:105850006860B9196B4614229A5E03C92241D317B6
:10586000FAF7C6FCFF23F5330022C01851415A0055
:105870000023FAF797FCA8600120A5E750F500087F
:10588000F3B50227002481B02646002502980123A3
:10589000021920462830C1B2019800F090F8002883
:1058A0000AD0641C6D1CEDB2E4B2BD42EED3761C8E
:1058B000F6B2032EE9D30120FEBD10B50C460A4610
:1058C0000123232100F07BF8002804D02078302128
:1058D00008402070012010BD10B50C460A46012377
:1058E000232100F06CF8002804D02078082108401B
:1058F0002070012010BD10B50C460A46012320215E
:1059000000F05DF8002804D02078082108402070BD
:10591000012010BD10B50C460A460123202100F0DD
:105920004EF8002804D020780009000120700120E2
:1059300010BD10B50A4601230F2100F040F80028E1
:1059400000D0012010BD10B50C460A4601232721C6
:1059500000F035F8002804D02078C007C00F207070
:10596000012010BD10B50C460A460123202100F08D
:1059700026F8002804D02078C007C00F207001202E
:1059800010BD10B50C460A460123202100F017F87F
:10599000002804D02078022108402070012010BD8A
:1059A00010B50C460A460123202100F008F8002813
:1059B00004D02078042108402070012010BD10B5CB
:1059C000012B01D98024214307F07AFC002801D063
:1059D000002010BD012010BD38B50C46054601233E
:1059E0006A462321FFF7EBFF00280ED069460878AE
:1059F00001234006400E204308706A4623212846B2
:105A000000F0A3F8002800D0012038BD38B50C46BE
:105A1000054601236A462E21FFF7D1FF00280ED04C
:105A20006946087801238006800E204308706A4684
:105A30002E21284600F089F8002800D0012038BD2A
:105A400038B50C46054601236A462321FFF7B7FF08
:105A500000280FD068460178CF20014021436846D6
:105A6000017001236A462321284600F06EF80028C1
:105A700000D0012038BD38B50C46054601236A46E2
:105A80002021FFF79CFF00280ED0694608780123EB
:105A90000007000F204308706A462021284600F0C6
:105AA00054F8002800D0012038BD38B50C46054612
:105AB00001236A462021FFF782FF00280ED06946A5
:105AC0000878012340084000204308706A462021DE
:105AD000284600F03AF8002800D0012038BD38B53B
